{
  "_format": "hh-sol-artifact-1",
  "contractName": "TrustDAI",
  "sourceName": "contracts/TrustDAI.sol",
  "abi": [
    {
      "anonymous": false,
      "inputs": [
        {
          "indexed": true,
          "internalType": "address",
          "name": "owner",
          "type": "address"
        },
        {
          "indexed": false,
          "internalType": "string",
          "name": "cid",
          "type": "string"
        },
        {
          "indexed": true,
          "internalType": "address",
          "name": "grantee",
          "type": "address"
        }
      ],
      "name": "AccessGranted",
      "type": "event"
    },
    {
      "anonymous": false,
      "inputs": [
        {
          "indexed": true,
          "internalType": "address",
          "name": "owner",
          "type": "address"
        },
        {
          "indexed": false,
          "internalType": "string",
          "name": "cid",
          "type": "string"
        },
        {
          "indexed": true,
          "internalType": "address",
          "name": "revoked",
          "type": "address"
        }
      ],
      "name": "AccessRevoked",
      "type": "event"
    },
    {
      "anonymous": false,
      "inputs": [
        {
          "indexed": true,
          "internalType": "address",
          "name": "owner",
          "type": "address"
        },
        {
          "indexed": false,
          "internalType": "string",
          "name": "cid",
          "type": "string"
        }
      ],
      "name": "FileAdded",
      "type": "event"
    },
    {
      "anonymous": false,
      "inputs": [
        {
          "indexed": true,
          "internalType": "address",
          "name": "owner",
          "type": "address"
        },
        {
          "indexed": false,
          "internalType": "string",
          "name": "cid",
          "type": "string"
        }
      ],
      "name": "FileDeleted",
      "type": "event"
    },
    {
      "anonymous": false,
      "inputs": [
        {
          "indexed": true,
          "internalType": "address",
          "name": "owner",
          "type": "address"
        },
        {
          "indexed": false,
          "internalType": "string",
          "name": "oldCid",
          "type": "string"
        },
        {
          "indexed": false,
          "internalType": "string",
          "name": "newCid",
          "type": "string"
        }
      ],
      "name": "FileUpdated",
      "type": "event"
    },
    {
      "inputs": [
        {
          "internalType": "string",
          "name": "cid",
          "type": "string"
        }
      ],
      "name": "addFile",
      "outputs": [],
      "stateMutability": "nonpayable",
      "type": "function"
    },
    {
      "inputs": [
        {
          "internalType": "string[]",
          "name": "cidsToAdd",
          "type": "string[]"
        },
        {
          "internalType": "string[]",
          "name": "oldCidsToUpdate",
          "type": "string[]"
        },
        {
          "internalType": "string[]",
          "name": "newCidsToUpdate",
          "type": "string[]"
        },
        {
          "internalType": "string[]",
          "name": "cidsToDelete",
          "type": "string[]"
        }
      ],
      "name": "batchFileOperations",
      "outputs": [],
      "stateMutability": "nonpayable",
      "type": "function"
    },
    {
      "inputs": [
        {
          "internalType": "string",
          "name": "cid",
          "type": "string"
        }
      ],
      "name": "deleteFile",
      "outputs": [],
      "stateMutability": "nonpayable",
      "type": "function"
    },
    {
      "inputs": [
        {
          "internalType": "string",
          "name": "",
          "type": "string"
        }
      ],
      "name": "fileOwner",
      "outputs": [
        {
          "internalType": "address",
          "name": "",
          "type": "address"
        }
      ],
      "stateMutability": "view",
      "type": "function"
    },
    {
      "inputs": [
        {
          "internalType": "string",
          "name": "cid",
          "type": "string"
        }
      ],
      "name": "getAccessList",
      "outputs": [
        {
          "internalType": "address[]",
          "name": "",
          "type": "address[]"
        }
      ],
      "stateMutability": "view",
      "type": "function"
    },
    {
      "inputs": [
        {
          "internalType": "address",
          "name": "user",
          "type": "address"
        }
      ],
      "name": "getUserFiles",
      "outputs": [
        {
          "internalType": "string[]",
          "name": "",
          "type": "string[]"
        }
      ],
      "stateMutability": "view",
      "type": "function"
    },
    {
      "inputs": [
        {
          "internalType": "string",
          "name": "cid",
          "type": "string"
        },
        {
          "internalType": "address",
          "name": "user",
          "type": "address"
        }
      ],
      "name": "grantAccess",
      "outputs": [],
      "stateMutability": "nonpayable",
      "type": "function"
    },
    {
      "inputs": [
        {
          "internalType": "string",
          "name": "cid",
          "type": "string"
        }
      ],
      "name": "hasAccess",
      "outputs": [
        {
          "internalType": "bool",
          "name": "",
          "type": "bool"
        }
      ],
      "stateMutability": "view",
      "type": "function"
    },
    {
      "inputs": [
        {
          "internalType": "string",
          "name": "cid",
          "type": "string"
        },
        {
          "internalType": "address",
          "name": "user",
          "type": "address"
        }
      ],
      "name": "revokeAccess",
      "outputs": [],
      "stateMutability": "nonpayable",
      "type": "function"
    },
    {
      "inputs": [
        {
          "internalType": "string",
          "name": "oldCid",
          "type": "string"
        },
        {
          "internalType": "string",
          "name": "newCid",
          "type": "string"
        }
      ],
      "name": "updateFile",
      "outputs": [],
      "stateMutability": "nonpayable",
      "type": "function"
    }
  ],
  "bytecode": "0x608060405234801561001057600080fd5b50612a3e806100206000396000f3fe608060405234801561001057600080fd5b506004361061009e5760003560e01c8063d655c0d311610066578063d655c0d31461016b578063dfe0b5fe1461019b578063e9ef4913146101b7578063eb9b9b64146101d3578063f37c215e146101ef5761009e565b80631fc37922146100a3578063464ed51c146100d3578063a9910054146100ef578063bf5c6ca51461010b578063cbd4585f1461013b575b600080fd5b6100bd60048036038101906100b8919061194a565b61020b565b6040516100ca9190611ac9565b60405180910390f35b6100ed60048036038101906100e89190611c20565b610322565b005b61010960048036038101906101049190611c98565b6107f7565b005b61012560048036038101906101209190611c98565b610a91565b6040516101329190611cfc565b60405180910390f35b61015560048036038101906101509190611c98565b610c23565b6040516101629190611d26565b60405180910390f35b61018560048036038101906101809190611c98565b610c6c565b6040516101929190611dff565b60405180910390f35b6101b560048036038101906101b09190611e21565b610d18565b005b6101d160048036038101906101cc9190611f63565b610fe0565b005b6101ed60048036038101906101e89190611c98565b61110e565b005b61020960048036038101906102049190611e21565b6113cd565b005b60606000808373ffffffffffffffffffffffffffffffffffffffff1673ffffffffffffffffffffffffffffffffffffffff168152602001908152602001600020805480602002602001604051908101604052809291908181526020016000905b8282101561031757838290600052602060002001805461028a90612069565b80601f01602080910402602001604051908101604052809291908181526020018280546102b690612069565b80156103035780601f106102d857610100808354040283529160200191610303565b820191906000526020600020905b8154815290600101906020018083116102e657829003601f168201915b50505050508152602001906001019061026b565b505050509050919050565b813373ffffffffffffffffffffffffffffffffffffffff1660018260405161034a91906120d6565b908152602001604051809103902060009054906101000a900473ffffffffffffffffffffffffffffffffffffffff1673ffffffffffffffffffffffffffffffffffffffff16146103cf576040517f08c379a00000000000000000000000000000000000000000000000000000000081526004016103c690612170565b60405180910390fd5b600073ffffffffffffffffffffffffffffffffffffffff166001836040516103f791906120d6565b908152602001604051809103902060009054906101000a900473ffffffffffffffffffffffffffffffffffffffff1673ffffffffffffffffffffffffffffffffffffffff161461047c576040517f08c379a0000000000000000000000000000000000000000000000000000000008152600401610473906121dc565b60405180910390fd5b3360018360405161048d91906120d6565b908152602001604051809103902060006101000a81548173ffffffffffffffffffffffffffffffffffffffff021916908373ffffffffffffffffffffffffffffffffffffffff1602179055506001836040516104e991906120d6565b908152602001604051809103902060006101000a81549073ffffffffffffffffffffffffffffffffffffffff0219169055600060038460405161052c91906120d6565b90815260200160405180910390208054806020026020016040519081016040528092919081815260200182805480156105ba57602002820191906000526020600020905b8160009054906101000a900473ffffffffffffffffffffffffffffffffffffffff1673ffffffffffffffffffffffffffffffffffffffff1681526020019060010190808311610570575b5050505050905060005b815181101561066e5760016002856040516105df91906120d6565b90815260200160405180910390206000848481518110610602576106016121fc565b5b602002602001015173ffffffffffffffffffffffffffffffffffffffff1673ffffffffffffffffffffffffffffffffffffffff16815260200190815260200160002060006101000a81548160ff021916908315150217905550808061066690612264565b9150506105c4565b508060038460405161068091906120d6565b908152602001604051809103902090805190602001906106a19291906117d0565b506003846040516106b291906120d6565b908152602001604051809103902060006106cc919061185a565b60008060003373ffffffffffffffffffffffffffffffffffffffff1673ffffffffffffffffffffffffffffffffffffffff168152602001908152602001600020905060005b818054905081101561079f578580519060200120828281548110610738576107376121fc565b5b9060005260206000200160405161074f919061234f565b60405180910390200361078c57848282815481106107705761076f6121fc565b5b9060005260206000200190816107869190612512565b5061079f565b808061079790612264565b915050610711565b503373ffffffffffffffffffffffffffffffffffffffff167feed1d9aeac219cfdbb0e954790128fda20008d428c716ff4d982f2218cb9c9ee86866040516107e892919061261d565b60405180910390a25050505050565b803373ffffffffffffffffffffffffffffffffffffffff1660018260405161081f91906120d6565b908152602001604051809103902060009054906101000a900473ffffffffffffffffffffffffffffffffffffffff1673ffffffffffffffffffffffffffffffffffffffff16146108a4576040517f08c379a000000000000000000000000000000000000000000000000000000000815260040161089b90612170565b60405180910390fd5b60008060003373ffffffffffffffffffffffffffffffffffffffff1673ffffffffffffffffffffffffffffffffffffffff168152602001908152602001600020905060005b81805490508110156109d25783805190602001208282815481106109105761090f6121fc565b5b90600052602060002001604051610927919061234f565b6040518091039020036109bf5781600183805490506109469190612654565b81548110610957576109566121fc565b5b90600052602060002001828281548110610974576109736121fc565b5b90600052602060002001908161098a91906126b3565b508180548061099c5761099b61279b565b5b6001900381819060005260206000200160006109b8919061187b565b90556109d2565b80806109ca90612264565b9150506108e9565b506001836040516109e391906120d6565b908152602001604051809103902060006101000a81549073ffffffffffffffffffffffffffffffffffffffff0219169055600383604051610a2491906120d6565b90815260200160405180910390206000610a3e919061185a565b3373ffffffffffffffffffffffffffffffffffffffff167f14a51c77a00d5c4c3ccc7a4df74f169088c4d4d04859d176729645e53c7b895c84604051610a8491906127ca565b60405180910390a2505050565b60008073ffffffffffffffffffffffffffffffffffffffff16600183604051610aba91906120d6565b908152602001604051809103902060009054906101000a900473ffffffffffffffffffffffffffffffffffffffff1673ffffffffffffffffffffffffffffffffffffffff1603610b3f576040517f08c379a0000000000000000000000000000000000000000000000000000000008152600401610b3690612838565b60405180910390fd5b600282604051610b4f91906120d6565b908152602001604051809103902060003373ffffffffffffffffffffffffffffffffffffffff1673ffffffffffffffffffffffffffffffffffffffff16815260200190815260200160002060009054906101000a900460ff1680610c1c57503373ffffffffffffffffffffffffffffffffffffffff16600183604051610bd591906120d6565b908152602001604051809103902060009054906101000a900473ffffffffffffffffffffffffffffffffffffffff1673ffffffffffffffffffffffffffffffffffffffff16145b9050919050565b6001818051602081018201805184825260208301602085012081835280955050505050506000915054906101000a900473ffffffffffffffffffffffffffffffffffffffff1681565b6060600382604051610c7e91906120d6565b9081526020016040518091039020805480602002602001604051908101604052809291908181526020018280548015610d0c57602002820191906000526020600020905b8160009054906101000a900473ffffffffffffffffffffffffffffffffffffffff1673ffffffffffffffffffffffffffffffffffffffff1681526020019060010190808311610cc2575b50505050509050919050565b813373ffffffffffffffffffffffffffffffffffffffff16600182604051610d4091906120d6565b908152602001604051809103902060009054906101000a900473ffffffffffffffffffffffffffffffffffffffff1673ffffffffffffffffffffffffffffffffffffffff1614610dc5576040517f08c379a0000000000000000000000000000000000000000000000000000000008152600401610dbc90612170565b60405180910390fd5b600283604051610dd591906120d6565b908152602001604051809103902060008373ffffffffffffffffffffffffffffffffffffffff1673ffffffffffffffffffffffffffffffffffffffff16815260200190815260200160002060009054906101000a900460ff16610e6d576040517f08c379a0000000000000000000000000000000000000000000000000000000008152600401610e64906128a4565b60405180910390fd5b3373ffffffffffffffffffffffffffffffffffffffff168273ffffffffffffffffffffffffffffffffffffffff1603610edb576040517f08c379a0000000000000000000000000000000000000000000000000000000008152600401610ed290612910565b60405180910390fd5b6000600284604051610eed91906120d6565b908152602001604051809103902060008473ffffffffffffffffffffffffffffffffffffffff1673ffffffffffffffffffffffffffffffffffffffff16815260200190815260200160002060006101000a81548160ff021916908315150217905550610f76600384604051610f6291906120d6565b908152602001604051809103902083611645565b8173ffffffffffffffffffffffffffffffffffffffff163373ffffffffffffffffffffffffffffffffffffffff167fa09219d7e8e0f494087bb0762109f3d8fa4bfc090a8a348a142cab14aa73e3f785604051610fd391906127ca565b60405180910390a3505050565b60005b84518110156110225761100f858281518110611002576110016121fc565b5b602002602001015161110e565b808061101a90612264565b915050610fe3565b508151835114611067576040517f08c379a000000000000000000000000000000000000000000000000000000000815260040161105e9061297c565b60405180910390fd5b60005b83518110156110c4576110b1848281518110611089576110886121fc565b5b60200260200101518483815181106110a4576110a36121fc565b5b6020026020010151610322565b80806110bc90612264565b91505061106a565b5060005b8151811015611107576110f48282815181106110e7576110e66121fc565b5b60200260200101516107f7565b80806110ff90612264565b9150506110c8565b5050505050565b600073ffffffffffffffffffffffffffffffffffffffff1660018260405161113691906120d6565b908152602001604051809103902060009054906101000a900473ffffffffffffffffffffffffffffffffffffffff1673ffffffffffffffffffffffffffffffffffffffff16146111bb576040517f08c379a00000000000000000000000000000000000000000000000000000000081526004016111b2906129e8565b60405180910390fd5b336001826040516111cc91906120d6565b908152602001604051809103902060006101000a81548173ffffffffffffffffffffffffffffffffffffffff021916908373ffffffffffffffffffffffffffffffffffffffff1602179055506000803373ffffffffffffffffffffffffffffffffffffffff1673ffffffffffffffffffffffffffffffffffffffff168152602001908152602001600020819080600181540180825580915050600190039060005260206000200160009091909190915090816112889190612512565b50600160028260405161129b91906120d6565b908152602001604051809103902060003373ffffffffffffffffffffffffffffffffffffffff1673ffffffffffffffffffffffffffffffffffffffff16815260200190815260200160002060006101000a81548160ff02191690831515021790555060038160405161130d91906120d6565b9081526020016040518091039020339080600181540180825580915050600190039060005260206000200160009091909190916101000a81548173ffffffffffffffffffffffffffffffffffffffff021916908373ffffffffffffffffffffffffffffffffffffffff1602179055503373ffffffffffffffffffffffffffffffffffffffff167f771ad20575501c8cafc4a8793006515911d6e497fd5838018654c9b50347430c826040516113c291906127ca565b60405180910390a250565b813373ffffffffffffffffffffffffffffffffffffffff166001826040516113f591906120d6565b908152602001604051809103902060009054906101000a900473ffffffffffffffffffffffffffffffffffffffff1673ffffffffffffffffffffffffffffffffffffffff161461147a576040517f08c379a000000000000000000000000000000000000000000000000000000000815260040161147190612170565b60405180910390fd5b60028360405161148a91906120d6565b908152602001604051809103902060008373ffffffffffffffffffffffffffffffffffffffff1673ffffffffffffffffffffffffffffffffffffffff16815260200190815260200160002060009054906101000a900460ff166116405760016002846040516114f991906120d6565b908152602001604051809103902060008473ffffffffffffffffffffffffffffffffffffffff1673ffffffffffffffffffffffffffffffffffffffff16815260200190815260200160002060006101000a81548160ff02191690831515021790555060038360405161156b91906120d6565b9081526020016040518091039020829080600181540180825580915050600190039060005260206000200160009091909190916101000a81548173ffffffffffffffffffffffffffffffffffffffff021916908373ffffffffffffffffffffffffffffffffffffffff1602179055508173ffffffffffffffffffffffffffffffffffffffff163373ffffffffffffffffffffffffffffffffffffffff167f1374c56ac5373755358f44713ae3c7f3c5bde84cb5d9bcbddf8c15b647ed34038560405161163791906127ca565b60405180910390a35b505050565b60005b82805490508110156117cb578173ffffffffffffffffffffffffffffffffffffffff1683828154811061167e5761167d6121fc565b5b9060005260206000200160009054906101000a900473ffffffffffffffffffffffffffffffffffffffff1673ffffffffffffffffffffffffffffffffffffffff16036117b85782600184805490506116d69190612654565b815481106116e7576116e66121fc565b5b9060005260206000200160009054906101000a900473ffffffffffffffffffffffffffffffffffffffff16838281548110611725576117246121fc565b5b9060005260206000200160006101000a81548173ffffffffffffffffffffffffffffffffffffffff021916908373ffffffffffffffffffffffffffffffffffffffff1602179055508280548061177e5761177d61279b565b5b6001900381819060005260206000200160006101000a81549073ffffffffffffffffffffffffffffffffffffffff021916905590556117cb565b80806117c390612264565b915050611648565b505050565b828054828255906000526020600020908101928215611849579160200282015b828111156118485782518260006101000a81548173ffffffffffffffffffffffffffffffffffffffff021916908373ffffffffffffffffffffffffffffffffffffffff160217905550916020019190600101906117f0565b5b50905061185691906118bb565b5090565b508054600082559060005260206000209081019061187891906118bb565b50565b50805461188790612069565b6000825580601f1061189957506118b8565b601f0160209004906000526020600020908101906118b791906118bb565b5b50565b5b808211156118d45760008160009055506001016118bc565b5090565b6000604051905090565b600080fd5b600080fd5b600073ffffffffffffffffffffffffffffffffffffffff82169050919050565b6000611917826118ec565b9050919050565b6119278161190c565b811461193257600080fd5b50565b6000813590506119448161191e565b92915050565b6000602082840312156119605761195f6118e2565b5b600061196e84828501611935565b91505092915050565b600081519050919050565b600082825260208201905092915050565b6000819050602082019050919050565b600081519050919050565b600082825260208201905092915050565b60005b838110156119dd5780820151818401526020810190506119c2565b60008484015250505050565b6000601f19601f8301169050919050565b6000611a05826119a3565b611a0f81856119ae565b9350611a1f8185602086016119bf565b611a28816119e9565b840191505092915050565b6000611a3f83836119fa565b905092915050565b6000602082019050919050565b6000611a5f82611977565b611a698185611982565b935083602082028501611a7b85611993565b8060005b85811015611ab75784840389528151611a988582611a33565b9450611aa383611a47565b925060208a01995050600181019050611a7f565b50829750879550505050505092915050565b60006020820190508181036000830152611ae38184611a54565b905092915050565b600080fd5b600080fd5b7f4e487b7100000000000000000000000000000000000000000000000000000000600052604160045260246000fd5b611b2d826119e9565b810181811067ffffffffffffffff82111715611b4c57611b4b611af5565b5b80604052505050565b6000611b5f6118d8565b9050611b6b8282611b24565b919050565b600067ffffffffffffffff821115611b8b57611b8a611af5565b5b611b94826119e9565b9050602081019050919050565b82818337600083830152505050565b6000611bc3611bbe84611b70565b611b55565b905082815260208101848484011115611bdf57611bde611af0565b5b611bea848285611ba1565b509392505050565b600082601f830112611c0757611c06611aeb565b5b8135611c17848260208601611bb0565b91505092915050565b60008060408385031215611c3757611c366118e2565b5b600083013567ffffffffffffffff811115611c5557611c546118e7565b5b611c6185828601611bf2565b925050602083013567ffffffffffffffff811115611c8257611c816118e7565b5b611c8e85828601611bf2565b9150509250929050565b600060208284031215611cae57611cad6118e2565b5b600082013567ffffffffffffffff811115611ccc57611ccb6118e7565b5b611cd884828501611bf2565b91505092915050565b60008115159050919050565b611cf681611ce1565b82525050565b6000602082019050611d116000830184611ced565b92915050565b611d208161190c565b82525050565b6000602082019050611d3b6000830184611d17565b92915050565b600081519050919050565b600082825260208201905092915050565b6000819050602082019050919050565b611d768161190c565b82525050565b6000611d888383611d6d565b60208301905092915050565b6000602082019050919050565b6000611dac82611d41565b611db68185611d4c565b9350611dc183611d5d565b8060005b83811015611df2578151611dd98882611d7c565b9750611de483611d94565b925050600181019050611dc5565b5085935050505092915050565b60006020820190508181036000830152611e198184611da1565b905092915050565b60008060408385031215611e3857611e376118e2565b5b600083013567ffffffffffffffff811115611e5657611e556118e7565b5b611e6285828601611bf2565b9250506020611e7385828601611935565b9150509250929050565b600067ffffffffffffffff821115611e9857611e97611af5565b5b602082029050602081019050919050565b600080fd5b6000611ec1611ebc84611e7d565b611b55565b90508083825260208201905060208402830185811115611ee457611ee3611ea9565b5b835b81811015611f2b57803567ffffffffffffffff811115611f0957611f08611aeb565b5b808601611f168982611bf2565b85526020850194505050602081019050611ee6565b5050509392505050565b600082601f830112611f4a57611f49611aeb565b5b8135611f5a848260208601611eae565b91505092915050565b60008060008060808587031215611f7d57611f7c6118e2565b5b600085013567ffffffffffffffff811115611f9b57611f9a6118e7565b5b611fa787828801611f35565b945050602085013567ffffffffffffffff811115611fc857611fc76118e7565b5b611fd487828801611f35565b935050604085013567ffffffffffffffff811115611ff557611ff46118e7565b5b61200187828801611f35565b925050606085013567ffffffffffffffff811115612022576120216118e7565b5b61202e87828801611f35565b91505092959194509250565b7f4e487b7100000000000000000000000000000000000000000000000000000000600052602260045260246000fd5b6000600282049050600182168061208157607f821691505b6020821081036120945761209361203a565b5b50919050565b600081905092915050565b60006120b0826119a3565b6120ba818561209a565b93506120ca8185602086016119bf565b80840191505092915050565b60006120e282846120a5565b915081905092915050565b600082825260208201905092915050565b7f4f6e6c792066696c65206f776e65722063616e20706572666f726d207468697360008201527f20616374696f6e2e000000000000000000000000000000000000000000000000602082015250565b600061215a6028836120ed565b9150612165826120fe565b604082019050919050565b600060208201905081810360008301526121898161214d565b9050919050565b7f4e65772043494420616c72656164792065786973747300000000000000000000600082015250565b60006121c66016836120ed565b91506121d182612190565b602082019050919050565b600060208201905081810360008301526121f5816121b9565b9050919050565b7f4e487b7100000000000000000000000000000000000000000000000000000000600052603260045260246000fd5b7f4e487b7100000000000000000000000000000000000000000000000000000000600052601160045260246000fd5b6000819050919050565b600061226f8261225a565b91507fffffffffffffffffffffffffffffffffffffffffffffffffffffffffffffffff82036122a1576122a061222b565b5b600182019050919050565b600081905092915050565b60008190508160005260206000209050919050565b600081546122d981612069565b6122e381866122ac565b945060018216600081146122fe576001811461231357612346565b60ff1983168652811515820286019350612346565b61231c856122b7565b60005b8381101561233e5781548189015260018201915060208101905061231f565b838801955050505b50505092915050565b600061235b82846122cc565b915081905092915050565b60008190508160005260206000209050919050565b60006020601f8301049050919050565b600082821b905092915050565b6000600883026123c87fffffffffffffffffffffffffffffffffffffffffffffffffffffffffffffffff8261238b565b6123d2868361238b565b95508019841693508086168417925050509392505050565b6000819050919050565b600061240f61240a6124058461225a565b6123ea565b61225a565b9050919050565b6000819050919050565b612429836123f4565b61243d61243582612416565b848454612398565b825550505050565b600090565b612452612445565b61245d818484612420565b505050565b5b818110156124815761247660008261244a565b600181019050612463565b5050565b601f8211156124c65761249781612366565b6124a08461237b565b810160208510156124af578190505b6124c36124bb8561237b565b830182612462565b50505b505050565b600082821c905092915050565b60006124e9600019846008026124cb565b1980831691505092915050565b600061250283836124d8565b9150826002028217905092915050565b61251b826119a3565b67ffffffffffffffff81111561253457612533611af5565b5b61253e8254612069565b612549828285612485565b600060209050601f83116001811461257c576000841561256a578287015190505b61257485826124f6565b8655506125dc565b601f19841661258a86612366565b60005b828110156125b25784890151825560018201915060208501945060208101905061258d565b868310156125cf57848901516125cb601f8916826124d8565b8355505b6001600288020188555050505b505050505050565b60006125ef826119a3565b6125f981856120ed565b93506126098185602086016119bf565b612612816119e9565b840191505092915050565b6000604082019050818103600083015261263781856125e4565b9050818103602083015261264b81846125e4565b90509392505050565b600061265f8261225a565b915061266a8361225a565b92508282039050818111156126825761268161222b565b5b92915050565b60008154905061269781612069565b9050919050565b60008190508160005260206000209050919050565b8181036126c1575050612799565b6126ca82612688565b67ffffffffffffffff8111156126e3576126e2611af5565b5b6126ed8254612069565b6126f8828285612485565b6000601f8311600181146127275760008415612715578287015490505b61271f85826124f6565b865550612792565b601f1984166127358761269e565b965061274086612366565b60005b8281101561276857848901548255600182019150600185019450602081019050612743565b868310156127855784890154612781601f8916826124d8565b8355505b6001600288020188555050505b5050505050505b565b7f4e487b7100000000000000000000000000000000000000000000000000000000600052603160045260246000fd5b600060208201905081810360008301526127e481846125e4565b905092915050565b7f46696c6520646f65736e27742065786973742e00000000000000000000000000600082015250565b60006128226013836120ed565b915061282d826127ec565b602082019050919050565b6000602082019050818103600083015261285181612815565b9050919050565b7f5573657220646f6573206e6f7420686176652061636365737300000000000000600082015250565b600061288e6019836120ed565b915061289982612858565b602082019050919050565b600060208201905081810360008301526128bd81612881565b9050919050565b7f4f776e65722063616e6e6f74206265207265766f6b6564000000000000000000600082015250565b60006128fa6017836120ed565b9150612905826128c4565b602082019050919050565b60006020820190508181036000830152612929816128ed565b9050919050565b7f5570646174653a204172726179206c656e677468206d69736d61746368000000600082015250565b6000612966601d836120ed565b915061297182612930565b602082019050919050565b6000602082019050818103600083015261299581612959565b9050919050565b7f46696c6520616c72656164792065786973747300000000000000000000000000600082015250565b60006129d26013836120ed565b91506129dd8261299c565b602082019050919050565b60006020820190508181036000830152612a01816129c5565b905091905056fea2646970667358221220aafa414f0a732d1941202da91429307e980d7bfc1b4dabce9540380be8981bb064736f6c63430008110033",
  "linkReferences": {},
  "deployedLinkReferences": {}
}