{"contracts/TrustDAI.sol":{"TrustDAI":{"abi":[{"anonymous":false,"inputs":[{"indexed":true,"internalType":"address","name":"owner","type":"address"},{"indexed":false,"internalType":"string","name":"cid","type":"string"},{"indexed":true,"internalType":"address","name":"grantee","type":"address"}],"name":"AccessGranted","type":"event"},{"anonymous":false,"inputs":[{"indexed":true,"internalType":"address","name":"owner","type":"address"},{"indexed":false,"internalType":"string","name":"cid","type":"string"},{"indexed":true,"internalType":"address","name":"revoked","type":"address"}],"name":"AccessRevoked","type":"event"},{"anonymous":false,"inputs":[{"indexed":true,"internalType":"address","name":"owner","type":"address"},{"indexed":false,"internalType":"string","name":"cid","type":"string"}],"name":"FileAdded","type":"event"},{"anonymous":false,"inputs":[{"indexed":true,"internalType":"address","name":"owner","type":"address"},{"indexed":false,"internalType":"string","name":"cid","type":"string"}],"name":"FileDeleted","type":"event"},{"anonymous":false,"inputs":[{"indexed":true,"internalType":"address","name":"owner","type":"address"},{"indexed":false,"internalType":"string","name":"oldCid","type":"string"},{"indexed":false,"internalType":"string","name":"newCid","type":"string"}],"name":"FileUpdated","type":"event"},{"inputs":[{"internalType":"string","name":"cid","type":"string"}],"name":"addFile","outputs":[],"stateMutability":"nonpayable","type":"function"},{"inputs":[{"internalType":"string[]","name":"cidsToAdd","type":"string[]"},{"internalType":"string[]","name":"oldCidsToUpdate","type":"string[]"},{"internalType":"string[]","name":"newCidsToUpdate","type":"string[]"},{"internalType":"string[]","name":"cidsToDelete","type":"string[]"}],"name":"batchFileOperations","outputs":[],"stateMutability":"nonpayable","type":"function"},{"inputs":[{"internalType":"string","name":"cid","type":"string"}],"name":"deleteFile","outputs":[],"stateMutability":"nonpayable","type":"function"},{"inputs":[{"internalType":"string","name":"","type":"string"}],"name":"fileOwner","outputs":[{"internalType":"address","name":"","type":"address"}],"stateMutability":"view","type":"function"},{"inputs":[{"internalType":"string","name":"cid","type":"string"}],"name":"getAccessList","outputs":[{"internalType":"address[]","name":"","type":"address[]"}],"stateMutability":"view","type":"function"},{"inputs":[{"internalType":"address","name":"user","type":"address"}],"name":"getUserFiles","outputs":[{"internalType":"string[]","name":"","type":"string[]"}],"stateMutability":"view","type":"function"},{"inputs":[{"internalType":"string","name":"cid","type":"string"},{"internalType":"address","name":"user","type":"address"}],"name":"grantAccess","outputs":[],"stateMutability":"nonpayable","type":"function"},{"inputs":[{"internalType":"string","name":"cid","type":"string"}],"name":"hasAccess","outputs":[{"internalType":"bool","name":"","type":"bool"}],"stateMutability":"view","type":"function"},{"inputs":[{"internalType":"string","name":"cid","type":"string"},{"internalType":"address","name":"user","type":"address"}],"name":"revokeAccess","outputs":[],"stateMutability":"nonpayable","type":"function"},{"inputs":[{"internalType":"string","name":"oldCid","type":"string"},{"internalType":"string","name":"newCid","type":"string"}],"name":"updateFile","outputs":[],"stateMutability":"nonpayable","type":"function"}],"evm":{"bytecode":{"linkReferences":{},"object":"608060405234801561001057600080fd5b50612a3e806100206000396000f3fe608060405234801561001057600080fd5b506004361061009e5760003560e01c8063d655c0d311610066578063d655c0d31461016b578063dfe0b5fe1461019b578063e9ef4913146101b7578063eb9b9b64146101d3578063f37c215e146101ef5761009e565b80631fc37922146100a3578063464ed51c146100d3578063a9910054146100ef578063bf5c6ca51461010b578063cbd4585f1461013b575b600080fd5b6100bd60048036038101906100b8919061194a565b61020b565b6040516100ca9190611ac9565b60405180910390f35b6100ed60048036038101906100e89190611c20565b610322565b005b61010960048036038101906101049190611c98565b6107f7565b005b61012560048036038101906101209190611c98565b610a91565b6040516101329190611cfc565b60405180910390f35b61015560048036038101906101509190611c98565b610c23565b6040516101629190611d26565b60405180910390f35b61018560048036038101906101809190611c98565b610c6c565b6040516101929190611dff565b60405180910390f35b6101b560048036038101906101b09190611e21565b610d18565b005b6101d160048036038101906101cc9190611f63565b610fe0565b005b6101ed60048036038101906101e89190611c98565b61110e565b005b61020960048036038101906102049190611e21565b6113cd565b005b60606000808373ffffffffffffffffffffffffffffffffffffffff1673ffffffffffffffffffffffffffffffffffffffff168152602001908152602001600020805480602002602001604051908101604052809291908181526020016000905b8282101561031757838290600052602060002001805461028a90612069565b80601f01602080910402602001604051908101604052809291908181526020018280546102b690612069565b80156103035780601f106102d857610100808354040283529160200191610303565b820191906000526020600020905b8154815290600101906020018083116102e657829003601f168201915b50505050508152602001906001019061026b565b505050509050919050565b813373ffffffffffffffffffffffffffffffffffffffff1660018260405161034a91906120d6565b908152602001604051809103902060009054906101000a900473ffffffffffffffffffffffffffffffffffffffff1673ffffffffffffffffffffffffffffffffffffffff16146103cf576040517f08c379a00000000000000000000000000000000000000000000000000000000081526004016103c690612170565b60405180910390fd5b600073ffffffffffffffffffffffffffffffffffffffff166001836040516103f791906120d6565b908152602001604051809103902060009054906101000a900473ffffffffffffffffffffffffffffffffffffffff1673ffffffffffffffffffffffffffffffffffffffff161461047c576040517f08c379a0000000000000000000000000000000000000000000000000000000008152600401610473906121dc565b60405180910390fd5b3360018360405161048d91906120d6565b908152602001604051809103902060006101000a81548173ffffffffffffffffffffffffffffffffffffffff021916908373ffffffffffffffffffffffffffffffffffffffff1602179055506001836040516104e991906120d6565b908152602001604051809103902060006101000a81549073ffffffffffffffffffffffffffffffffffffffff0219169055600060038460405161052c91906120d6565b90815260200160405180910390208054806020026020016040519081016040528092919081815260200182805480156105ba57602002820191906000526020600020905b8160009054906101000a900473ffffffffffffffffffffffffffffffffffffffff1673ffffffffffffffffffffffffffffffffffffffff1681526020019060010190808311610570575b5050505050905060005b815181101561066e5760016002856040516105df91906120d6565b90815260200160405180910390206000848481518110610602576106016121fc565b5b602002602001015173ffffffffffffffffffffffffffffffffffffffff1673ffffffffffffffffffffffffffffffffffffffff16815260200190815260200160002060006101000a81548160ff021916908315150217905550808061066690612264565b9150506105c4565b508060038460405161068091906120d6565b908152602001604051809103902090805190602001906106a19291906117d0565b506003846040516106b291906120d6565b908152602001604051809103902060006106cc919061185a565b60008060003373ffffffffffffffffffffffffffffffffffffffff1673ffffffffffffffffffffffffffffffffffffffff168152602001908152602001600020905060005b818054905081101561079f578580519060200120828281548110610738576107376121fc565b5b9060005260206000200160405161074f919061234f565b60405180910390200361078c57848282815481106107705761076f6121fc565b5b9060005260206000200190816107869190612512565b5061079f565b808061079790612264565b915050610711565b503373ffffffffffffffffffffffffffffffffffffffff167feed1d9aeac219cfdbb0e954790128fda20008d428c716ff4d982f2218cb9c9ee86866040516107e892919061261d565b60405180910390a25050505050565b803373ffffffffffffffffffffffffffffffffffffffff1660018260405161081f91906120d6565b908152602001604051809103902060009054906101000a900473ffffffffffffffffffffffffffffffffffffffff1673ffffffffffffffffffffffffffffffffffffffff16146108a4576040517f08c379a000000000000000000000000000000000000000000000000000000000815260040161089b90612170565b60405180910390fd5b60008060003373ffffffffffffffffffffffffffffffffffffffff1673ffffffffffffffffffffffffffffffffffffffff168152602001908152602001600020905060005b81805490508110156109d25783805190602001208282815481106109105761090f6121fc565b5b90600052602060002001604051610927919061234f565b6040518091039020036109bf5781600183805490506109469190612654565b81548110610957576109566121fc565b5b90600052602060002001828281548110610974576109736121fc565b5b90600052602060002001908161098a91906126b3565b508180548061099c5761099b61279b565b5b6001900381819060005260206000200160006109b8919061187b565b90556109d2565b80806109ca90612264565b9150506108e9565b506001836040516109e391906120d6565b908152602001604051809103902060006101000a81549073ffffffffffffffffffffffffffffffffffffffff0219169055600383604051610a2491906120d6565b90815260200160405180910390206000610a3e919061185a565b3373ffffffffffffffffffffffffffffffffffffffff167f14a51c77a00d5c4c3ccc7a4df74f169088c4d4d04859d176729645e53c7b895c84604051610a8491906127ca565b60405180910390a2505050565b60008073ffffffffffffffffffffffffffffffffffffffff16600183604051610aba91906120d6565b908152602001604051809103902060009054906101000a900473ffffffffffffffffffffffffffffffffffffffff1673ffffffffffffffffffffffffffffffffffffffff1603610b3f576040517f08c379a0000000000000000000000000000000000000000000000000000000008152600401610b3690612838565b60405180910390fd5b600282604051610b4f91906120d6565b908152602001604051809103902060003373ffffffffffffffffffffffffffffffffffffffff1673ffffffffffffffffffffffffffffffffffffffff16815260200190815260200160002060009054906101000a900460ff1680610c1c57503373ffffffffffffffffffffffffffffffffffffffff16600183604051610bd591906120d6565b908152602001604051809103902060009054906101000a900473ffffffffffffffffffffffffffffffffffffffff1673ffffffffffffffffffffffffffffffffffffffff16145b9050919050565b6001818051602081018201805184825260208301602085012081835280955050505050506000915054906101000a900473ffffffffffffffffffffffffffffffffffffffff1681565b6060600382604051610c7e91906120d6565b9081526020016040518091039020805480602002602001604051908101604052809291908181526020018280548015610d0c57602002820191906000526020600020905b8160009054906101000a900473ffffffffffffffffffffffffffffffffffffffff1673ffffffffffffffffffffffffffffffffffffffff1681526020019060010190808311610cc2575b50505050509050919050565b813373ffffffffffffffffffffffffffffffffffffffff16600182604051610d4091906120d6565b908152602001604051809103902060009054906101000a900473ffffffffffffffffffffffffffffffffffffffff1673ffffffffffffffffffffffffffffffffffffffff1614610dc5576040517f08c379a0000000000000000000000000000000000000000000000000000000008152600401610dbc90612170565b60405180910390fd5b600283604051610dd591906120d6565b908152602001604051809103902060008373ffffffffffffffffffffffffffffffffffffffff1673ffffffffffffffffffffffffffffffffffffffff16815260200190815260200160002060009054906101000a900460ff16610e6d576040517f08c379a0000000000000000000000000000000000000000000000000000000008152600401610e64906128a4565b60405180910390fd5b3373ffffffffffffffffffffffffffffffffffffffff168273ffffffffffffffffffffffffffffffffffffffff1603610edb576040517f08c379a0000000000000000000000000000000000000000000000000000000008152600401610ed290612910565b60405180910390fd5b6000600284604051610eed91906120d6565b908152602001604051809103902060008473ffffffffffffffffffffffffffffffffffffffff1673ffffffffffffffffffffffffffffffffffffffff16815260200190815260200160002060006101000a81548160ff021916908315150217905550610f76600384604051610f6291906120d6565b908152602001604051809103902083611645565b8173ffffffffffffffffffffffffffffffffffffffff163373ffffffffffffffffffffffffffffffffffffffff167fa09219d7e8e0f494087bb0762109f3d8fa4bfc090a8a348a142cab14aa73e3f785604051610fd391906127ca565b60405180910390a3505050565b60005b84518110156110225761100f858281518110611002576110016121fc565b5b602002602001015161110e565b808061101a90612264565b915050610fe3565b508151835114611067576040517f08c379a000000000000000000000000000000000000000000000000000000000815260040161105e9061297c565b60405180910390fd5b60005b83518110156110c4576110b1848281518110611089576110886121fc565b5b60200260200101518483815181106110a4576110a36121fc565b5b6020026020010151610322565b80806110bc90612264565b91505061106a565b5060005b8151811015611107576110f48282815181106110e7576110e66121fc565b5b60200260200101516107f7565b80806110ff90612264565b9150506110c8565b5050505050565b600073ffffffffffffffffffffffffffffffffffffffff1660018260405161113691906120d6565b908152602001604051809103902060009054906101000a900473ffffffffffffffffffffffffffffffffffffffff1673ffffffffffffffffffffffffffffffffffffffff16146111bb576040517f08c379a00000000000000000000000000000000000000000000000000000000081526004016111b2906129e8565b60405180910390fd5b336001826040516111cc91906120d6565b908152602001604051809103902060006101000a81548173ffffffffffffffffffffffffffffffffffffffff021916908373ffffffffffffffffffffffffffffffffffffffff1602179055506000803373ffffffffffffffffffffffffffffffffffffffff1673ffffffffffffffffffffffffffffffffffffffff168152602001908152602001600020819080600181540180825580915050600190039060005260206000200160009091909190915090816112889190612512565b50600160028260405161129b91906120d6565b908152602001604051809103902060003373ffffffffffffffffffffffffffffffffffffffff1673ffffffffffffffffffffffffffffffffffffffff16815260200190815260200160002060006101000a81548160ff02191690831515021790555060038160405161130d91906120d6565b9081526020016040518091039020339080600181540180825580915050600190039060005260206000200160009091909190916101000a81548173ffffffffffffffffffffffffffffffffffffffff021916908373ffffffffffffffffffffffffffffffffffffffff1602179055503373ffffffffffffffffffffffffffffffffffffffff167f771ad20575501c8cafc4a8793006515911d6e497fd5838018654c9b50347430c826040516113c291906127ca565b60405180910390a250565b813373ffffffffffffffffffffffffffffffffffffffff166001826040516113f591906120d6565b908152602001604051809103902060009054906101000a900473ffffffffffffffffffffffffffffffffffffffff1673ffffffffffffffffffffffffffffffffffffffff161461147a576040517f08c379a000000000000000000000000000000000000000000000000000000000815260040161147190612170565b60405180910390fd5b60028360405161148a91906120d6565b908152602001604051809103902060008373ffffffffffffffffffffffffffffffffffffffff1673ffffffffffffffffffffffffffffffffffffffff16815260200190815260200160002060009054906101000a900460ff166116405760016002846040516114f991906120d6565b908152602001604051809103902060008473ffffffffffffffffffffffffffffffffffffffff1673ffffffffffffffffffffffffffffffffffffffff16815260200190815260200160002060006101000a81548160ff02191690831515021790555060038360405161156b91906120d6565b9081526020016040518091039020829080600181540180825580915050600190039060005260206000200160009091909190916101000a81548173ffffffffffffffffffffffffffffffffffffffff021916908373ffffffffffffffffffffffffffffffffffffffff1602179055508173ffffffffffffffffffffffffffffffffffffffff163373ffffffffffffffffffffffffffffffffffffffff167f1374c56ac5373755358f44713ae3c7f3c5bde84cb5d9bcbddf8c15b647ed34038560405161163791906127ca565b60405180910390a35b505050565b60005b82805490508110156117cb578173ffffffffffffffffffffffffffffffffffffffff1683828154811061167e5761167d6121fc565b5b9060005260206000200160009054906101000a900473ffffffffffffffffffffffffffffffffffffffff1673ffffffffffffffffffffffffffffffffffffffff16036117b85782600184805490506116d69190612654565b815481106116e7576116e66121fc565b5b9060005260206000200160009054906101000a900473ffffffffffffffffffffffffffffffffffffffff16838281548110611725576117246121fc565b5b9060005260206000200160006101000a81548173ffffffffffffffffffffffffffffffffffffffff021916908373ffffffffffffffffffffffffffffffffffffffff1602179055508280548061177e5761177d61279b565b5b6001900381819060005260206000200160006101000a81549073ffffffffffffffffffffffffffffffffffffffff021916905590556117cb565b80806117c390612264565b915050611648565b505050565b828054828255906000526020600020908101928215611849579160200282015b828111156118485782518260006101000a81548173ffffffffffffffffffffffffffffffffffffffff021916908373ffffffffffffffffffffffffffffffffffffffff160217905550916020019190600101906117f0565b5b50905061185691906118bb565b5090565b508054600082559060005260206000209081019061187891906118bb565b50565b50805461188790612069565b6000825580601f1061189957506118b8565b601f0160209004906000526020600020908101906118b791906118bb565b5b50565b5b808211156118d45760008160009055506001016118bc565b5090565b6000604051905090565b600080fd5b600080fd5b600073ffffffffffffffffffffffffffffffffffffffff82169050919050565b6000611917826118ec565b9050919050565b6119278161190c565b811461193257600080fd5b50565b6000813590506119448161191e565b92915050565b6000602082840312156119605761195f6118e2565b5b600061196e84828501611935565b91505092915050565b600081519050919050565b600082825260208201905092915050565b6000819050602082019050919050565b600081519050919050565b600082825260208201905092915050565b60005b838110156119dd5780820151818401526020810190506119c2565b60008484015250505050565b6000601f19601f8301169050919050565b6000611a05826119a3565b611a0f81856119ae565b9350611a1f8185602086016119bf565b611a28816119e9565b840191505092915050565b6000611a3f83836119fa565b905092915050565b6000602082019050919050565b6000611a5f82611977565b611a698185611982565b935083602082028501611a7b85611993565b8060005b85811015611ab75784840389528151611a988582611a33565b9450611aa383611a47565b925060208a01995050600181019050611a7f565b50829750879550505050505092915050565b60006020820190508181036000830152611ae38184611a54565b905092915050565b600080fd5b600080fd5b7f4e487b7100000000000000000000000000000000000000000000000000000000600052604160045260246000fd5b611b2d826119e9565b810181811067ffffffffffffffff82111715611b4c57611b4b611af5565b5b80604052505050565b6000611b5f6118d8565b9050611b6b8282611b24565b919050565b600067ffffffffffffffff821115611b8b57611b8a611af5565b5b611b94826119e9565b9050602081019050919050565b82818337600083830152505050565b6000611bc3611bbe84611b70565b611b55565b905082815260208101848484011115611bdf57611bde611af0565b5b611bea848285611ba1565b509392505050565b600082601f830112611c0757611c06611aeb565b5b8135611c17848260208601611bb0565b91505092915050565b60008060408385031215611c3757611c366118e2565b5b600083013567ffffffffffffffff811115611c5557611c546118e7565b5b611c6185828601611bf2565b925050602083013567ffffffffffffffff811115611c8257611c816118e7565b5b611c8e85828601611bf2565b9150509250929050565b600060208284031215611cae57611cad6118e2565b5b600082013567ffffffffffffffff811115611ccc57611ccb6118e7565b5b611cd884828501611bf2565b91505092915050565b60008115159050919050565b611cf681611ce1565b82525050565b6000602082019050611d116000830184611ced565b92915050565b611d208161190c565b82525050565b6000602082019050611d3b6000830184611d17565b92915050565b600081519050919050565b600082825260208201905092915050565b6000819050602082019050919050565b611d768161190c565b82525050565b6000611d888383611d6d565b60208301905092915050565b6000602082019050919050565b6000611dac82611d41565b611db68185611d4c565b9350611dc183611d5d565b8060005b83811015611df2578151611dd98882611d7c565b9750611de483611d94565b925050600181019050611dc5565b5085935050505092915050565b60006020820190508181036000830152611e198184611da1565b905092915050565b60008060408385031215611e3857611e376118e2565b5b600083013567ffffffffffffffff811115611e5657611e556118e7565b5b611e6285828601611bf2565b9250506020611e7385828601611935565b9150509250929050565b600067ffffffffffffffff821115611e9857611e97611af5565b5b602082029050602081019050919050565b600080fd5b6000611ec1611ebc84611e7d565b611b55565b90508083825260208201905060208402830185811115611ee457611ee3611ea9565b5b835b81811015611f2b57803567ffffffffffffffff811115611f0957611f08611aeb565b5b808601611f168982611bf2565b85526020850194505050602081019050611ee6565b5050509392505050565b600082601f830112611f4a57611f49611aeb565b5b8135611f5a848260208601611eae565b91505092915050565b60008060008060808587031215611f7d57611f7c6118e2565b5b600085013567ffffffffffffffff811115611f9b57611f9a6118e7565b5b611fa787828801611f35565b945050602085013567ffffffffffffffff811115611fc857611fc76118e7565b5b611fd487828801611f35565b935050604085013567ffffffffffffffff811115611ff557611ff46118e7565b5b61200187828801611f35565b925050606085013567ffffffffffffffff811115612022576120216118e7565b5b61202e87828801611f35565b91505092959194509250565b7f4e487b7100000000000000000000000000000000000000000000000000000000600052602260045260246000fd5b6000600282049050600182168061208157607f821691505b6020821081036120945761209361203a565b5b50919050565b600081905092915050565b60006120b0826119a3565b6120ba818561209a565b93506120ca8185602086016119bf565b80840191505092915050565b60006120e282846120a5565b915081905092915050565b600082825260208201905092915050565b7f4f6e6c792066696c65206f776e65722063616e20706572666f726d207468697360008201527f20616374696f6e2e000000000000000000000000000000000000000000000000602082015250565b600061215a6028836120ed565b9150612165826120fe565b604082019050919050565b600060208201905081810360008301526121898161214d565b9050919050565b7f4e65772043494420616c72656164792065786973747300000000000000000000600082015250565b60006121c66016836120ed565b91506121d182612190565b602082019050919050565b600060208201905081810360008301526121f5816121b9565b9050919050565b7f4e487b7100000000000000000000000000000000000000000000000000000000600052603260045260246000fd5b7f4e487b7100000000000000000000000000000000000000000000000000000000600052601160045260246000fd5b6000819050919050565b600061226f8261225a565b91507fffffffffffffffffffffffffffffffffffffffffffffffffffffffffffffffff82036122a1576122a061222b565b5b600182019050919050565b600081905092915050565b60008190508160005260206000209050919050565b600081546122d981612069565b6122e381866122ac565b945060018216600081146122fe576001811461231357612346565b60ff1983168652811515820286019350612346565b61231c856122b7565b60005b8381101561233e5781548189015260018201915060208101905061231f565b838801955050505b50505092915050565b600061235b82846122cc565b915081905092915050565b60008190508160005260206000209050919050565b60006020601f8301049050919050565b600082821b905092915050565b6000600883026123c87fffffffffffffffffffffffffffffffffffffffffffffffffffffffffffffffff8261238b565b6123d2868361238b565b95508019841693508086168417925050509392505050565b6000819050919050565b600061240f61240a6124058461225a565b6123ea565b61225a565b9050919050565b6000819050919050565b612429836123f4565b61243d61243582612416565b848454612398565b825550505050565b600090565b612452612445565b61245d818484612420565b505050565b5b818110156124815761247660008261244a565b600181019050612463565b5050565b601f8211156124c65761249781612366565b6124a08461237b565b810160208510156124af578190505b6124c36124bb8561237b565b830182612462565b50505b505050565b600082821c905092915050565b60006124e9600019846008026124cb565b1980831691505092915050565b600061250283836124d8565b9150826002028217905092915050565b61251b826119a3565b67ffffffffffffffff81111561253457612533611af5565b5b61253e8254612069565b612549828285612485565b600060209050601f83116001811461257c576000841561256a578287015190505b61257485826124f6565b8655506125dc565b601f19841661258a86612366565b60005b828110156125b25784890151825560018201915060208501945060208101905061258d565b868310156125cf57848901516125cb601f8916826124d8565b8355505b6001600288020188555050505b505050505050565b60006125ef826119a3565b6125f981856120ed565b93506126098185602086016119bf565b612612816119e9565b840191505092915050565b6000604082019050818103600083015261263781856125e4565b9050818103602083015261264b81846125e4565b90509392505050565b600061265f8261225a565b915061266a8361225a565b92508282039050818111156126825761268161222b565b5b92915050565b60008154905061269781612069565b9050919050565b60008190508160005260206000209050919050565b8181036126c1575050612799565b6126ca82612688565b67ffffffffffffffff8111156126e3576126e2611af5565b5b6126ed8254612069565b6126f8828285612485565b6000601f8311600181146127275760008415612715578287015490505b61271f85826124f6565b865550612792565b601f1984166127358761269e565b965061274086612366565b60005b8281101561276857848901548255600182019150600185019450602081019050612743565b868310156127855784890154612781601f8916826124d8565b8355505b6001600288020188555050505b5050505050505b565b7f4e487b7100000000000000000000000000000000000000000000000000000000600052603160045260246000fd5b600060208201905081810360008301526127e481846125e4565b905092915050565b7f46696c6520646f65736e27742065786973742e00000000000000000000000000600082015250565b60006128226013836120ed565b915061282d826127ec565b602082019050919050565b6000602082019050818103600083015261285181612815565b9050919050565b7f5573657220646f6573206e6f7420686176652061636365737300000000000000600082015250565b600061288e6019836120ed565b915061289982612858565b602082019050919050565b600060208201905081810360008301526128bd81612881565b9050919050565b7f4f776e65722063616e6e6f74206265207265766f6b6564000000000000000000600082015250565b60006128fa6017836120ed565b9150612905826128c4565b602082019050919050565b60006020820190508181036000830152612929816128ed565b9050919050565b7f5570646174653a204172726179206c656e677468206d69736d61746368000000600082015250565b6000612966601d836120ed565b915061297182612930565b602082019050919050565b6000602082019050818103600083015261299581612959565b9050919050565b7f46696c6520616c72656164792065786973747300000000000000000000000000600082015250565b60006129d26013836120ed565b91506129dd8261299c565b602082019050919050565b60006020820190508181036000830152612a01816129c5565b905091905056fea2646970667358221220aafa414f0a732d1941202da91429307e980d7bfc1b4dabce9540380be8981bb064736f6c63430008110033","opcodes":"PUSH1 0x80 PUSH1 0x40 MSTORE CALLVALUE DUP1 ISZERO PUSH2 0x10 JUMPI PUSH1 0x0 DUP1 REVERT JUMPDEST POP PUSH2 0x2A3E DUP1 PUSH2 0x20 PUSH1 0x0 CODECOPY PUSH1 0x0 RETURN INVALID PUSH1 0x80 PUSH1 0x40 MSTORE CALLVALUE DUP1 ISZERO PUSH2 0x10 JUMPI PUSH1 0x0 DUP1 REVERT JUMPDEST POP PUSH1 0x4 CALLDATASIZE LT PUSH2 0x9E JUMPI PUSH1 0x0 CALLDATALOAD PUSH1 0xE0 SHR DUP1 PUSH4 0xD655C0D3 GT PUSH2 0x66 JUMPI DUP1 PUSH4 0xD655C0D3 EQ PUSH2 0x16B JUMPI DUP1 PUSH4 0xDFE0B5FE EQ PUSH2 0x19B JUMPI DUP1 PUSH4 0xE9EF4913 EQ PUSH2 0x1B7 JUMPI DUP1 PUSH4 0xEB9B9B64 EQ PUSH2 0x1D3 JUMPI DUP1 PUSH4 0xF37C215E EQ PUSH2 0x1EF JUMPI PUSH2 0x9E JUMP JUMPDEST DUP1 PUSH4 0x1FC37922 EQ PUSH2 0xA3 JUMPI DUP1 PUSH4 0x464ED51C EQ PUSH2 0xD3 JUMPI DUP1 PUSH4 0xA9910054 EQ PUSH2 0xEF JUMPI DUP1 PUSH4 0xBF5C6CA5 EQ PUSH2 0x10B JUMPI DUP1 PUSH4 0xCBD4585F EQ PUSH2 0x13B JUMPI JUMPDEST PUSH1 0x0 DUP1 REVERT JUMPDEST PUSH2 0xBD PUSH1 0x4 DUP1 CALLDATASIZE SUB DUP2 ADD SWAP1 PUSH2 0xB8 SWAP2 SWAP1 PUSH2 0x194A JUMP JUMPDEST PUSH2 0x20B JUMP JUMPDEST PUSH1 0x40 MLOAD PUSH2 0xCA SWAP2 SWAP1 PUSH2 0x1AC9 JUMP JUMPDEST PUSH1 0x40 MLOAD DUP1 SWAP2 SUB SWAP1 RETURN JUMPDEST PUSH2 0xED PUSH1 0x4 DUP1 CALLDATASIZE SUB DUP2 ADD SWAP1 PUSH2 0xE8 SWAP2 SWAP1 PUSH2 0x1C20 JUMP JUMPDEST PUSH2 0x322 JUMP JUMPDEST STOP JUMPDEST PUSH2 0x109 PUSH1 0x4 DUP1 CALLDATASIZE SUB DUP2 ADD SWAP1 PUSH2 0x104 SWAP2 SWAP1 PUSH2 0x1C98 JUMP JUMPDEST PUSH2 0x7F7 JUMP JUMPDEST STOP JUMPDEST PUSH2 0x125 PUSH1 0x4 DUP1 CALLDATASIZE SUB DUP2 ADD SWAP1 PUSH2 0x120 SWAP2 SWAP1 PUSH2 0x1C98 JUMP JUMPDEST PUSH2 0xA91 JUMP JUMPDEST PUSH1 0x40 MLOAD PUSH2 0x132 SWAP2 SWAP1 PUSH2 0x1CFC JUMP JUMPDEST PUSH1 0x40 MLOAD DUP1 SWAP2 SUB SWAP1 RETURN JUMPDEST PUSH2 0x155 PUSH1 0x4 DUP1 CALLDATASIZE SUB DUP2 ADD SWAP1 PUSH2 0x150 SWAP2 SWAP1 PUSH2 0x1C98 JUMP JUMPDEST PUSH2 0xC23 JUMP JUMPDEST PUSH1 0x40 MLOAD PUSH2 0x162 SWAP2 SWAP1 PUSH2 0x1D26 JUMP JUMPDEST PUSH1 0x40 MLOAD DUP1 SWAP2 SUB SWAP1 RETURN JUMPDEST PUSH2 0x185 PUSH1 0x4 DUP1 CALLDATASIZE SUB DUP2 ADD SWAP1 PUSH2 0x180 SWAP2 SWAP1 PUSH2 0x1C98 JUMP JUMPDEST PUSH2 0xC6C JUMP JUMPDEST PUSH1 0x40 MLOAD PUSH2 0x192 SWAP2 SWAP1 PUSH2 0x1DFF JUMP JUMPDEST PUSH1 0x40 MLOAD DUP1 SWAP2 SUB SWAP1 RETURN JUMPDEST PUSH2 0x1B5 PUSH1 0x4 DUP1 CALLDATASIZE SUB DUP2 ADD SWAP1 PUSH2 0x1B0 SWAP2 SWAP1 PUSH2 0x1E21 JUMP JUMPDEST PUSH2 0xD18 JUMP JUMPDEST STOP JUMPDEST PUSH2 0x1D1 PUSH1 0x4 DUP1 CALLDATASIZE SUB DUP2 ADD SWAP1 PUSH2 0x1CC SWAP2 SWAP1 PUSH2 0x1F63 JUMP JUMPDEST PUSH2 0xFE0 JUMP JUMPDEST STOP JUMPDEST PUSH2 0x1ED PUSH1 0x4 DUP1 CALLDATASIZE SUB DUP2 ADD SWAP1 PUSH2 0x1E8 SWAP2 SWAP1 PUSH2 0x1C98 JUMP JUMPDEST PUSH2 0x110E JUMP JUMPDEST STOP JUMPDEST PUSH2 0x209 PUSH1 0x4 DUP1 CALLDATASIZE SUB DUP2 ADD SWAP1 PUSH2 0x204 SWAP2 SWAP1 PUSH2 0x1E21 JUMP JUMPDEST PUSH2 0x13CD JUMP JUMPDEST STOP JUMPDEST PUSH1 0x60 PUSH1 0x0 DUP1 DUP4 PUSH20 0xFFFFFFFFFFFFFFFFFFFFFFFFFFFFFFFFFFFFFFFF AND PUSH20 0xFFFFFFFFFFFFFFFFFFFFFFFFFFFFFFFFFFFFFFFF AND DUP2 MSTORE PUSH1 0x20 ADD SWAP1 DUP2 MSTORE PUSH1 0x20 ADD PUSH1 0x0 KECCAK256 DUP1 SLOAD DUP1 PUSH1 0x20 MUL PUSH1 0x20 ADD PUSH1 0x40 MLOAD SWAP1 DUP2 ADD PUSH1 0x40 MSTORE DUP1 SWAP3 SWAP2 SWAP1 DUP2 DUP2 MSTORE PUSH1 0x20 ADD PUSH1 0x0 SWAP1 JUMPDEST DUP3 DUP3 LT ISZERO PUSH2 0x317 JUMPI DUP4 DUP3 SWAP1 PUSH1 0x0 MSTORE PUSH1 0x20 PUSH1 0x0 KECCAK256 ADD DUP1 SLOAD PUSH2 0x28A SWAP1 PUSH2 0x2069 JUMP JUMPDEST DUP1 PUSH1 0x1F ADD PUSH1 0x20 DUP1 SWAP2 DIV MUL PUSH1 0x20 ADD PUSH1 0x40 MLOAD SWAP1 DUP2 ADD PUSH1 0x40 MSTORE DUP1 SWAP3 SWAP2 SWAP1 DUP2 DUP2 MSTORE PUSH1 0x20 ADD DUP3 DUP1 SLOAD PUSH2 0x2B6 SWAP1 PUSH2 0x2069 JUMP JUMPDEST DUP1 ISZERO PUSH2 0x303 JUMPI DUP1 PUSH1 0x1F LT PUSH2 0x2D8 JUMPI PUSH2 0x100 DUP1 DUP4 SLOAD DIV MUL DUP4 MSTORE SWAP2 PUSH1 0x20 ADD SWAP2 PUSH2 0x303 JUMP JUMPDEST DUP3 ADD SWAP2 SWAP1 PUSH1 0x0 MSTORE PUSH1 0x20 PUSH1 0x0 KECCAK256 SWAP1 JUMPDEST DUP2 SLOAD DUP2 MSTORE SWAP1 PUSH1 0x1 ADD SWAP1 PUSH1 0x20 ADD DUP1 DUP4 GT PUSH2 0x2E6 JUMPI DUP3 SWAP1 SUB PUSH1 0x1F AND DUP3 ADD SWAP2 JUMPDEST POP POP POP POP POP DUP2 MSTORE PUSH1 0x20 ADD SWAP1 PUSH1 0x1 ADD SWAP1 PUSH2 0x26B JUMP JUMPDEST POP POP POP POP SWAP1 POP SWAP2 SWAP1 POP JUMP JUMPDEST DUP2 CALLER PUSH20 0xFFFFFFFFFFFFFFFFFFFFFFFFFFFFFFFFFFFFFFFF AND PUSH1 0x1 DUP3 PUSH1 0x40 MLOAD PUSH2 0x34A SWAP2 SWAP1 PUSH2 0x20D6 JUMP JUMPDEST SWAP1 DUP2 MSTORE PUSH1 0x20 ADD PUSH1 0x40 MLOAD DUP1 SWAP2 SUB SWAP1 KECCAK256 PUSH1 0x0 SWAP1 SLOAD SWAP1 PUSH2 0x100 EXP SWAP1 DIV PUSH20 0xFFFFFFFFFFFFFFFFFFFFFFFFFFFFFFFFFFFFFFFF AND PUSH20 0xFFFFFFFFFFFFFFFFFFFFFFFFFFFFFFFFFFFFFFFF AND EQ PUSH2 0x3CF JUMPI PUSH1 0x40 MLOAD PUSH32 0x8C379A000000000000000000000000000000000000000000000000000000000 DUP2 MSTORE PUSH1 0x4 ADD PUSH2 0x3C6 SWAP1 PUSH2 0x2170 JUMP JUMPDEST PUSH1 0x40 MLOAD DUP1 SWAP2 SUB SWAP1 REVERT JUMPDEST PUSH1 0x0 PUSH20 0xFFFFFFFFFFFFFFFFFFFFFFFFFFFFFFFFFFFFFFFF AND PUSH1 0x1 DUP4 PUSH1 0x40 MLOAD PUSH2 0x3F7 SWAP2 SWAP1 PUSH2 0x20D6 JUMP JUMPDEST SWAP1 DUP2 MSTORE PUSH1 0x20 ADD PUSH1 0x40 MLOAD DUP1 SWAP2 SUB SWAP1 KECCAK256 PUSH1 0x0 SWAP1 SLOAD SWAP1 PUSH2 0x100 EXP SWAP1 DIV PUSH20 0xFFFFFFFFFFFFFFFFFFFFFFFFFFFFFFFFFFFFFFFF AND PUSH20 0xFFFFFFFFFFFFFFFFFFFFFFFFFFFFFFFFFFFFFFFF AND EQ PUSH2 0x47C JUMPI PUSH1 0x40 MLOAD PUSH32 0x8C379A000000000000000000000000000000000000000000000000000000000 DUP2 MSTORE PUSH1 0x4 ADD PUSH2 0x473 SWAP1 PUSH2 0x21DC JUMP JUMPDEST PUSH1 0x40 MLOAD DUP1 SWAP2 SUB SWAP1 REVERT JUMPDEST CALLER PUSH1 0x1 DUP4 PUSH1 0x40 MLOAD PUSH2 0x48D SWAP2 SWAP1 PUSH2 0x20D6 JUMP JUMPDEST SWAP1 DUP2 MSTORE PUSH1 0x20 ADD PUSH1 0x40 MLOAD DUP1 SWAP2 SUB SWAP1 KECCAK256 PUSH1 0x0 PUSH2 0x100 EXP DUP2 SLOAD DUP2 PUSH20 0xFFFFFFFFFFFFFFFFFFFFFFFFFFFFFFFFFFFFFFFF MUL NOT AND SWAP1 DUP4 PUSH20 0xFFFFFFFFFFFFFFFFFFFFFFFFFFFFFFFFFFFFFFFF AND MUL OR SWAP1 SSTORE POP PUSH1 0x1 DUP4 PUSH1 0x40 MLOAD PUSH2 0x4E9 SWAP2 SWAP1 PUSH2 0x20D6 JUMP JUMPDEST SWAP1 DUP2 MSTORE PUSH1 0x20 ADD PUSH1 0x40 MLOAD DUP1 SWAP2 SUB SWAP1 KECCAK256 PUSH1 0x0 PUSH2 0x100 EXP DUP2 SLOAD SWAP1 PUSH20 0xFFFFFFFFFFFFFFFFFFFFFFFFFFFFFFFFFFFFFFFF MUL NOT AND SWAP1 SSTORE PUSH1 0x0 PUSH1 0x3 DUP5 PUSH1 0x40 MLOAD PUSH2 0x52C SWAP2 SWAP1 PUSH2 0x20D6 JUMP JUMPDEST SWAP1 DUP2 MSTORE PUSH1 0x20 ADD PUSH1 0x40 MLOAD DUP1 SWAP2 SUB SWAP1 KECCAK256 DUP1 SLOAD DUP1 PUSH1 0x20 MUL PUSH1 0x20 ADD PUSH1 0x40 MLOAD SWAP1 DUP2 ADD PUSH1 0x40 MSTORE DUP1 SWAP3 SWAP2 SWAP1 DUP2 DUP2 MSTORE PUSH1 0x20 ADD DUP3 DUP1 SLOAD DUP1 ISZERO PUSH2 0x5BA JUMPI PUSH1 0x20 MUL DUP3 ADD SWAP2 SWAP1 PUSH1 0x0 MSTORE PUSH1 0x20 PUSH1 0x0 KECCAK256 SWAP1 JUMPDEST DUP2 PUSH1 0x0 SWAP1 SLOAD SWAP1 PUSH2 0x100 EXP SWAP1 DIV PUSH20 0xFFFFFFFFFFFFFFFFFFFFFFFFFFFFFFFFFFFFFFFF AND PUSH20 0xFFFFFFFFFFFFFFFFFFFFFFFFFFFFFFFFFFFFFFFF AND DUP2 MSTORE PUSH1 0x20 ADD SWAP1 PUSH1 0x1 ADD SWAP1 DUP1 DUP4 GT PUSH2 0x570 JUMPI JUMPDEST POP POP POP POP POP SWAP1 POP PUSH1 0x0 JUMPDEST DUP2 MLOAD DUP2 LT ISZERO PUSH2 0x66E JUMPI PUSH1 0x1 PUSH1 0x2 DUP6 PUSH1 0x40 MLOAD PUSH2 0x5DF SWAP2 SWAP1 PUSH2 0x20D6 JUMP JUMPDEST SWAP1 DUP2 MSTORE PUSH1 0x20 ADD PUSH1 0x40 MLOAD DUP1 SWAP2 SUB SWAP1 KECCAK256 PUSH1 0x0 DUP5 DUP5 DUP2 MLOAD DUP2 LT PUSH2 0x602 JUMPI PUSH2 0x601 PUSH2 0x21FC JUMP JUMPDEST JUMPDEST PUSH1 0x20 MUL PUSH1 0x20 ADD ADD MLOAD PUSH20 0xFFFFFFFFFFFFFFFFFFFFFFFFFFFFFFFFFFFFFFFF AND PUSH20 0xFFFFFFFFFFFFFFFFFFFFFFFFFFFFFFFFFFFFFFFF AND DUP2 MSTORE PUSH1 0x20 ADD SWAP1 DUP2 MSTORE PUSH1 0x20 ADD PUSH1 0x0 KECCAK256 PUSH1 0x0 PUSH2 0x100 EXP DUP2 SLOAD DUP2 PUSH1 0xFF MUL NOT AND SWAP1 DUP4 ISZERO ISZERO MUL OR SWAP1 SSTORE POP DUP1 DUP1 PUSH2 0x666 SWAP1 PUSH2 0x2264 JUMP JUMPDEST SWAP2 POP POP PUSH2 0x5C4 JUMP JUMPDEST POP DUP1 PUSH1 0x3 DUP5 PUSH1 0x40 MLOAD PUSH2 0x680 SWAP2 SWAP1 PUSH2 0x20D6 JUMP JUMPDEST SWAP1 DUP2 MSTORE PUSH1 0x20 ADD PUSH1 0x40 MLOAD DUP1 SWAP2 SUB SWAP1 KECCAK256 SWAP1 DUP1 MLOAD SWAP1 PUSH1 0x20 ADD SWAP1 PUSH2 0x6A1 SWAP3 SWAP2 SWAP1 PUSH2 0x17D0 JUMP JUMPDEST POP PUSH1 0x3 DUP5 PUSH1 0x40 MLOAD PUSH2 0x6B2 SWAP2 SWAP1 PUSH2 0x20D6 JUMP JUMPDEST SWAP1 DUP2 MSTORE PUSH1 0x20 ADD PUSH1 0x40 MLOAD DUP1 SWAP2 SUB SWAP1 KECCAK256 PUSH1 0x0 PUSH2 0x6CC SWAP2 SWAP1 PUSH2 0x185A JUMP JUMPDEST PUSH1 0x0 DUP1 PUSH1 0x0 CALLER PUSH20 0xFFFFFFFFFFFFFFFFFFFFFFFFFFFFFFFFFFFFFFFF AND PUSH20 0xFFFFFFFFFFFFFFFFFFFFFFFFFFFFFFFFFFFFFFFF AND DUP2 MSTORE PUSH1 0x20 ADD SWAP1 DUP2 MSTORE PUSH1 0x20 ADD PUSH1 0x0 KECCAK256 SWAP1 POP PUSH1 0x0 JUMPDEST DUP2 DUP1 SLOAD SWAP1 POP DUP2 LT ISZERO PUSH2 0x79F JUMPI DUP6 DUP1 MLOAD SWAP1 PUSH1 0x20 ADD KECCAK256 DUP3 DUP3 DUP2 SLOAD DUP2 LT PUSH2 0x738 JUMPI PUSH2 0x737 PUSH2 0x21FC JUMP JUMPDEST JUMPDEST SWAP1 PUSH1 0x0 MSTORE PUSH1 0x20 PUSH1 0x0 KECCAK256 ADD PUSH1 0x40 MLOAD PUSH2 0x74F SWAP2 SWAP1 PUSH2 0x234F JUMP JUMPDEST PUSH1 0x40 MLOAD DUP1 SWAP2 SUB SWAP1 KECCAK256 SUB PUSH2 0x78C JUMPI DUP5 DUP3 DUP3 DUP2 SLOAD DUP2 LT PUSH2 0x770 JUMPI PUSH2 0x76F PUSH2 0x21FC JUMP JUMPDEST JUMPDEST SWAP1 PUSH1 0x0 MSTORE PUSH1 0x20 PUSH1 0x0 KECCAK256 ADD SWAP1 DUP2 PUSH2 0x786 SWAP2 SWAP1 PUSH2 0x2512 JUMP JUMPDEST POP PUSH2 0x79F JUMP JUMPDEST DUP1 DUP1 PUSH2 0x797 SWAP1 PUSH2 0x2264 JUMP JUMPDEST SWAP2 POP POP PUSH2 0x711 JUMP JUMPDEST POP CALLER PUSH20 0xFFFFFFFFFFFFFFFFFFFFFFFFFFFFFFFFFFFFFFFF AND PUSH32 0xEED1D9AEAC219CFDBB0E954790128FDA20008D428C716FF4D982F2218CB9C9EE DUP7 DUP7 PUSH1 0x40 MLOAD PUSH2 0x7E8 SWAP3 SWAP2 SWAP1 PUSH2 0x261D JUMP JUMPDEST PUSH1 0x40 MLOAD DUP1 SWAP2 SUB SWAP1 LOG2 POP POP POP POP POP JUMP JUMPDEST DUP1 CALLER PUSH20 0xFFFFFFFFFFFFFFFFFFFFFFFFFFFFFFFFFFFFFFFF AND PUSH1 0x1 DUP3 PUSH1 0x40 MLOAD PUSH2 0x81F SWAP2 SWAP1 PUSH2 0x20D6 JUMP JUMPDEST SWAP1 DUP2 MSTORE PUSH1 0x20 ADD PUSH1 0x40 MLOAD DUP1 SWAP2 SUB SWAP1 KECCAK256 PUSH1 0x0 SWAP1 SLOAD SWAP1 PUSH2 0x100 EXP SWAP1 DIV PUSH20 0xFFFFFFFFFFFFFFFFFFFFFFFFFFFFFFFFFFFFFFFF AND PUSH20 0xFFFFFFFFFFFFFFFFFFFFFFFFFFFFFFFFFFFFFFFF AND EQ PUSH2 0x8A4 JUMPI PUSH1 0x40 MLOAD PUSH32 0x8C379A000000000000000000000000000000000000000000000000000000000 DUP2 MSTORE PUSH1 0x4 ADD PUSH2 0x89B SWAP1 PUSH2 0x2170 JUMP JUMPDEST PUSH1 0x40 MLOAD DUP1 SWAP2 SUB SWAP1 REVERT JUMPDEST PUSH1 0x0 DUP1 PUSH1 0x0 CALLER PUSH20 0xFFFFFFFFFFFFFFFFFFFFFFFFFFFFFFFFFFFFFFFF AND PUSH20 0xFFFFFFFFFFFFFFFFFFFFFFFFFFFFFFFFFFFFFFFF AND DUP2 MSTORE PUSH1 0x20 ADD SWAP1 DUP2 MSTORE PUSH1 0x20 ADD PUSH1 0x0 KECCAK256 SWAP1 POP PUSH1 0x0 JUMPDEST DUP2 DUP1 SLOAD SWAP1 POP DUP2 LT ISZERO PUSH2 0x9D2 JUMPI DUP4 DUP1 MLOAD SWAP1 PUSH1 0x20 ADD KECCAK256 DUP3 DUP3 DUP2 SLOAD DUP2 LT PUSH2 0x910 JUMPI PUSH2 0x90F PUSH2 0x21FC JUMP JUMPDEST JUMPDEST SWAP1 PUSH1 0x0 MSTORE PUSH1 0x20 PUSH1 0x0 KECCAK256 ADD PUSH1 0x40 MLOAD PUSH2 0x927 SWAP2 SWAP1 PUSH2 0x234F JUMP JUMPDEST PUSH1 0x40 MLOAD DUP1 SWAP2 SUB SWAP1 KECCAK256 SUB PUSH2 0x9BF JUMPI DUP2 PUSH1 0x1 DUP4 DUP1 SLOAD SWAP1 POP PUSH2 0x946 SWAP2 SWAP1 PUSH2 0x2654 JUMP JUMPDEST DUP2 SLOAD DUP2 LT PUSH2 0x957 JUMPI PUSH2 0x956 PUSH2 0x21FC JUMP JUMPDEST JUMPDEST SWAP1 PUSH1 0x0 MSTORE PUSH1 0x20 PUSH1 0x0 KECCAK256 ADD DUP3 DUP3 DUP2 SLOAD DUP2 LT PUSH2 0x974 JUMPI PUSH2 0x973 PUSH2 0x21FC JUMP JUMPDEST JUMPDEST SWAP1 PUSH1 0x0 MSTORE PUSH1 0x20 PUSH1 0x0 KECCAK256 ADD SWAP1 DUP2 PUSH2 0x98A SWAP2 SWAP1 PUSH2 0x26B3 JUMP JUMPDEST POP DUP2 DUP1 SLOAD DUP1 PUSH2 0x99C JUMPI PUSH2 0x99B PUSH2 0x279B JUMP JUMPDEST JUMPDEST PUSH1 0x1 SWAP1 SUB DUP2 DUP2 SWAP1 PUSH1 0x0 MSTORE PUSH1 0x20 PUSH1 0x0 KECCAK256 ADD PUSH1 0x0 PUSH2 0x9B8 SWAP2 SWAP1 PUSH2 0x187B JUMP JUMPDEST SWAP1 SSTORE PUSH2 0x9D2 JUMP JUMPDEST DUP1 DUP1 PUSH2 0x9CA SWAP1 PUSH2 0x2264 JUMP JUMPDEST SWAP2 POP POP PUSH2 0x8E9 JUMP JUMPDEST POP PUSH1 0x1 DUP4 PUSH1 0x40 MLOAD PUSH2 0x9E3 SWAP2 SWAP1 PUSH2 0x20D6 JUMP JUMPDEST SWAP1 DUP2 MSTORE PUSH1 0x20 ADD PUSH1 0x40 MLOAD DUP1 SWAP2 SUB SWAP1 KECCAK256 PUSH1 0x0 PUSH2 0x100 EXP DUP2 SLOAD SWAP1 PUSH20 0xFFFFFFFFFFFFFFFFFFFFFFFFFFFFFFFFFFFFFFFF MUL NOT AND SWAP1 SSTORE PUSH1 0x3 DUP4 PUSH1 0x40 MLOAD PUSH2 0xA24 SWAP2 SWAP1 PUSH2 0x20D6 JUMP JUMPDEST SWAP1 DUP2 MSTORE PUSH1 0x20 ADD PUSH1 0x40 MLOAD DUP1 SWAP2 SUB SWAP1 KECCAK256 PUSH1 0x0 PUSH2 0xA3E SWAP2 SWAP1 PUSH2 0x185A JUMP JUMPDEST CALLER PUSH20 0xFFFFFFFFFFFFFFFFFFFFFFFFFFFFFFFFFFFFFFFF AND PUSH32 0x14A51C77A00D5C4C3CCC7A4DF74F169088C4D4D04859D176729645E53C7B895C DUP5 PUSH1 0x40 MLOAD PUSH2 0xA84 SWAP2 SWAP1 PUSH2 0x27CA JUMP JUMPDEST PUSH1 0x40 MLOAD DUP1 SWAP2 SUB SWAP1 LOG2 POP POP POP JUMP JUMPDEST PUSH1 0x0 DUP1 PUSH20 0xFFFFFFFFFFFFFFFFFFFFFFFFFFFFFFFFFFFFFFFF AND PUSH1 0x1 DUP4 PUSH1 0x40 MLOAD PUSH2 0xABA SWAP2 SWAP1 PUSH2 0x20D6 JUMP JUMPDEST SWAP1 DUP2 MSTORE PUSH1 0x20 ADD PUSH1 0x40 MLOAD DUP1 SWAP2 SUB SWAP1 KECCAK256 PUSH1 0x0 SWAP1 SLOAD SWAP1 PUSH2 0x100 EXP SWAP1 DIV PUSH20 0xFFFFFFFFFFFFFFFFFFFFFFFFFFFFFFFFFFFFFFFF AND PUSH20 0xFFFFFFFFFFFFFFFFFFFFFFFFFFFFFFFFFFFFFFFF AND SUB PUSH2 0xB3F JUMPI PUSH1 0x40 MLOAD PUSH32 0x8C379A000000000000000000000000000000000000000000000000000000000 DUP2 MSTORE PUSH1 0x4 ADD PUSH2 0xB36 SWAP1 PUSH2 0x2838 JUMP JUMPDEST PUSH1 0x40 MLOAD DUP1 SWAP2 SUB SWAP1 REVERT JUMPDEST PUSH1 0x2 DUP3 PUSH1 0x40 MLOAD PUSH2 0xB4F SWAP2 SWAP1 PUSH2 0x20D6 JUMP JUMPDEST SWAP1 DUP2 MSTORE PUSH1 0x20 ADD PUSH1 0x40 MLOAD DUP1 SWAP2 SUB SWAP1 KECCAK256 PUSH1 0x0 CALLER PUSH20 0xFFFFFFFFFFFFFFFFFFFFFFFFFFFFFFFFFFFFFFFF AND PUSH20 0xFFFFFFFFFFFFFFFFFFFFFFFFFFFFFFFFFFFFFFFF AND DUP2 MSTORE PUSH1 0x20 ADD SWAP1 DUP2 MSTORE PUSH1 0x20 ADD PUSH1 0x0 KECCAK256 PUSH1 0x0 SWAP1 SLOAD SWAP1 PUSH2 0x100 EXP SWAP1 DIV PUSH1 0xFF AND DUP1 PUSH2 0xC1C JUMPI POP CALLER PUSH20 0xFFFFFFFFFFFFFFFFFFFFFFFFFFFFFFFFFFFFFFFF AND PUSH1 0x1 DUP4 PUSH1 0x40 MLOAD PUSH2 0xBD5 SWAP2 SWAP1 PUSH2 0x20D6 JUMP JUMPDEST SWAP1 DUP2 MSTORE PUSH1 0x20 ADD PUSH1 0x40 MLOAD DUP1 SWAP2 SUB SWAP1 KECCAK256 PUSH1 0x0 SWAP1 SLOAD SWAP1 PUSH2 0x100 EXP SWAP1 DIV PUSH20 0xFFFFFFFFFFFFFFFFFFFFFFFFFFFFFFFFFFFFFFFF AND PUSH20 0xFFFFFFFFFFFFFFFFFFFFFFFFFFFFFFFFFFFFFFFF AND EQ JUMPDEST SWAP1 POP SWAP2 SWAP1 POP JUMP JUMPDEST PUSH1 0x1 DUP2 DUP1 MLOAD PUSH1 0x20 DUP2 ADD DUP3 ADD DUP1 MLOAD DUP5 DUP3 MSTORE PUSH1 0x20 DUP4 ADD PUSH1 0x20 DUP6 ADD KECCAK256 DUP2 DUP4 MSTORE DUP1 SWAP6 POP POP POP POP POP POP PUSH1 0x0 SWAP2 POP SLOAD SWAP1 PUSH2 0x100 EXP SWAP1 DIV PUSH20 0xFFFFFFFFFFFFFFFFFFFFFFFFFFFFFFFFFFFFFFFF AND DUP2 JUMP JUMPDEST PUSH1 0x60 PUSH1 0x3 DUP3 PUSH1 0x40 MLOAD PUSH2 0xC7E SWAP2 SWAP1 PUSH2 0x20D6 JUMP JUMPDEST SWAP1 DUP2 MSTORE PUSH1 0x20 ADD PUSH1 0x40 MLOAD DUP1 SWAP2 SUB SWAP1 KECCAK256 DUP1 SLOAD DUP1 PUSH1 0x20 MUL PUSH1 0x20 ADD PUSH1 0x40 MLOAD SWAP1 DUP2 ADD PUSH1 0x40 MSTORE DUP1 SWAP3 SWAP2 SWAP1 DUP2 DUP2 MSTORE PUSH1 0x20 ADD DUP3 DUP1 SLOAD DUP1 ISZERO PUSH2 0xD0C JUMPI PUSH1 0x20 MUL DUP3 ADD SWAP2 SWAP1 PUSH1 0x0 MSTORE PUSH1 0x20 PUSH1 0x0 KECCAK256 SWAP1 JUMPDEST DUP2 PUSH1 0x0 SWAP1 SLOAD SWAP1 PUSH2 0x100 EXP SWAP1 DIV PUSH20 0xFFFFFFFFFFFFFFFFFFFFFFFFFFFFFFFFFFFFFFFF AND PUSH20 0xFFFFFFFFFFFFFFFFFFFFFFFFFFFFFFFFFFFFFFFF AND DUP2 MSTORE PUSH1 0x20 ADD SWAP1 PUSH1 0x1 ADD SWAP1 DUP1 DUP4 GT PUSH2 0xCC2 JUMPI JUMPDEST POP POP POP POP POP SWAP1 POP SWAP2 SWAP1 POP JUMP JUMPDEST DUP2 CALLER PUSH20 0xFFFFFFFFFFFFFFFFFFFFFFFFFFFFFFFFFFFFFFFF AND PUSH1 0x1 DUP3 PUSH1 0x40 MLOAD PUSH2 0xD40 SWAP2 SWAP1 PUSH2 0x20D6 JUMP JUMPDEST SWAP1 DUP2 MSTORE PUSH1 0x20 ADD PUSH1 0x40 MLOAD DUP1 SWAP2 SUB SWAP1 KECCAK256 PUSH1 0x0 SWAP1 SLOAD SWAP1 PUSH2 0x100 EXP SWAP1 DIV PUSH20 0xFFFFFFFFFFFFFFFFFFFFFFFFFFFFFFFFFFFFFFFF AND PUSH20 0xFFFFFFFFFFFFFFFFFFFFFFFFFFFFFFFFFFFFFFFF AND EQ PUSH2 0xDC5 JUMPI PUSH1 0x40 MLOAD PUSH32 0x8C379A000000000000000000000000000000000000000000000000000000000 DUP2 MSTORE PUSH1 0x4 ADD PUSH2 0xDBC SWAP1 PUSH2 0x2170 JUMP JUMPDEST PUSH1 0x40 MLOAD DUP1 SWAP2 SUB SWAP1 REVERT JUMPDEST PUSH1 0x2 DUP4 PUSH1 0x40 MLOAD PUSH2 0xDD5 SWAP2 SWAP1 PUSH2 0x20D6 JUMP JUMPDEST SWAP1 DUP2 MSTORE PUSH1 0x20 ADD PUSH1 0x40 MLOAD DUP1 SWAP2 SUB SWAP1 KECCAK256 PUSH1 0x0 DUP4 PUSH20 0xFFFFFFFFFFFFFFFFFFFFFFFFFFFFFFFFFFFFFFFF AND PUSH20 0xFFFFFFFFFFFFFFFFFFFFFFFFFFFFFFFFFFFFFFFF AND DUP2 MSTORE PUSH1 0x20 ADD SWAP1 DUP2 MSTORE PUSH1 0x20 ADD PUSH1 0x0 KECCAK256 PUSH1 0x0 SWAP1 SLOAD SWAP1 PUSH2 0x100 EXP SWAP1 DIV PUSH1 0xFF AND PUSH2 0xE6D JUMPI PUSH1 0x40 MLOAD PUSH32 0x8C379A000000000000000000000000000000000000000000000000000000000 DUP2 MSTORE PUSH1 0x4 ADD PUSH2 0xE64 SWAP1 PUSH2 0x28A4 JUMP JUMPDEST PUSH1 0x40 MLOAD DUP1 SWAP2 SUB SWAP1 REVERT JUMPDEST CALLER PUSH20 0xFFFFFFFFFFFFFFFFFFFFFFFFFFFFFFFFFFFFFFFF AND DUP3 PUSH20 0xFFFFFFFFFFFFFFFFFFFFFFFFFFFFFFFFFFFFFFFF AND SUB PUSH2 0xEDB JUMPI PUSH1 0x40 MLOAD PUSH32 0x8C379A000000000000000000000000000000000000000000000000000000000 DUP2 MSTORE PUSH1 0x4 ADD PUSH2 0xED2 SWAP1 PUSH2 0x2910 JUMP JUMPDEST PUSH1 0x40 MLOAD DUP1 SWAP2 SUB SWAP1 REVERT JUMPDEST PUSH1 0x0 PUSH1 0x2 DUP5 PUSH1 0x40 MLOAD PUSH2 0xEED SWAP2 SWAP1 PUSH2 0x20D6 JUMP JUMPDEST SWAP1 DUP2 MSTORE PUSH1 0x20 ADD PUSH1 0x40 MLOAD DUP1 SWAP2 SUB SWAP1 KECCAK256 PUSH1 0x0 DUP5 PUSH20 0xFFFFFFFFFFFFFFFFFFFFFFFFFFFFFFFFFFFFFFFF AND PUSH20 0xFFFFFFFFFFFFFFFFFFFFFFFFFFFFFFFFFFFFFFFF AND DUP2 MSTORE PUSH1 0x20 ADD SWAP1 DUP2 MSTORE PUSH1 0x20 ADD PUSH1 0x0 KECCAK256 PUSH1 0x0 PUSH2 0x100 EXP DUP2 SLOAD DUP2 PUSH1 0xFF MUL NOT AND SWAP1 DUP4 ISZERO ISZERO MUL OR SWAP1 SSTORE POP PUSH2 0xF76 PUSH1 0x3 DUP5 PUSH1 0x40 MLOAD PUSH2 0xF62 SWAP2 SWAP1 PUSH2 0x20D6 JUMP JUMPDEST SWAP1 DUP2 MSTORE PUSH1 0x20 ADD PUSH1 0x40 MLOAD DUP1 SWAP2 SUB SWAP1 KECCAK256 DUP4 PUSH2 0x1645 JUMP JUMPDEST DUP2 PUSH20 0xFFFFFFFFFFFFFFFFFFFFFFFFFFFFFFFFFFFFFFFF AND CALLER PUSH20 0xFFFFFFFFFFFFFFFFFFFFFFFFFFFFFFFFFFFFFFFF AND PUSH32 0xA09219D7E8E0F494087BB0762109F3D8FA4BFC090A8A348A142CAB14AA73E3F7 DUP6 PUSH1 0x40 MLOAD PUSH2 0xFD3 SWAP2 SWAP1 PUSH2 0x27CA JUMP JUMPDEST PUSH1 0x40 MLOAD DUP1 SWAP2 SUB SWAP1 LOG3 POP POP POP JUMP JUMPDEST PUSH1 0x0 JUMPDEST DUP5 MLOAD DUP2 LT ISZERO PUSH2 0x1022 JUMPI PUSH2 0x100F DUP6 DUP3 DUP2 MLOAD DUP2 LT PUSH2 0x1002 JUMPI PUSH2 0x1001 PUSH2 0x21FC JUMP JUMPDEST JUMPDEST PUSH1 0x20 MUL PUSH1 0x20 ADD ADD MLOAD PUSH2 0x110E JUMP JUMPDEST DUP1 DUP1 PUSH2 0x101A SWAP1 PUSH2 0x2264 JUMP JUMPDEST SWAP2 POP POP PUSH2 0xFE3 JUMP JUMPDEST POP DUP2 MLOAD DUP4 MLOAD EQ PUSH2 0x1067 JUMPI PUSH1 0x40 MLOAD PUSH32 0x8C379A000000000000000000000000000000000000000000000000000000000 DUP2 MSTORE PUSH1 0x4 ADD PUSH2 0x105E SWAP1 PUSH2 0x297C JUMP JUMPDEST PUSH1 0x40 MLOAD DUP1 SWAP2 SUB SWAP1 REVERT JUMPDEST PUSH1 0x0 JUMPDEST DUP4 MLOAD DUP2 LT ISZERO PUSH2 0x10C4 JUMPI PUSH2 0x10B1 DUP5 DUP3 DUP2 MLOAD DUP2 LT PUSH2 0x1089 JUMPI PUSH2 0x1088 PUSH2 0x21FC JUMP JUMPDEST JUMPDEST PUSH1 0x20 MUL PUSH1 0x20 ADD ADD MLOAD DUP5 DUP4 DUP2 MLOAD DUP2 LT PUSH2 0x10A4 JUMPI PUSH2 0x10A3 PUSH2 0x21FC JUMP JUMPDEST JUMPDEST PUSH1 0x20 MUL PUSH1 0x20 ADD ADD MLOAD PUSH2 0x322 JUMP JUMPDEST DUP1 DUP1 PUSH2 0x10BC SWAP1 PUSH2 0x2264 JUMP JUMPDEST SWAP2 POP POP PUSH2 0x106A JUMP JUMPDEST POP PUSH1 0x0 JUMPDEST DUP2 MLOAD DUP2 LT ISZERO PUSH2 0x1107 JUMPI PUSH2 0x10F4 DUP3 DUP3 DUP2 MLOAD DUP2 LT PUSH2 0x10E7 JUMPI PUSH2 0x10E6 PUSH2 0x21FC JUMP JUMPDEST JUMPDEST PUSH1 0x20 MUL PUSH1 0x20 ADD ADD MLOAD PUSH2 0x7F7 JUMP JUMPDEST DUP1 DUP1 PUSH2 0x10FF SWAP1 PUSH2 0x2264 JUMP JUMPDEST SWAP2 POP POP PUSH2 0x10C8 JUMP JUMPDEST POP POP POP POP POP JUMP JUMPDEST PUSH1 0x0 PUSH20 0xFFFFFFFFFFFFFFFFFFFFFFFFFFFFFFFFFFFFFFFF AND PUSH1 0x1 DUP3 PUSH1 0x40 MLOAD PUSH2 0x1136 SWAP2 SWAP1 PUSH2 0x20D6 JUMP JUMPDEST SWAP1 DUP2 MSTORE PUSH1 0x20 ADD PUSH1 0x40 MLOAD DUP1 SWAP2 SUB SWAP1 KECCAK256 PUSH1 0x0 SWAP1 SLOAD SWAP1 PUSH2 0x100 EXP SWAP1 DIV PUSH20 0xFFFFFFFFFFFFFFFFFFFFFFFFFFFFFFFFFFFFFFFF AND PUSH20 0xFFFFFFFFFFFFFFFFFFFFFFFFFFFFFFFFFFFFFFFF AND EQ PUSH2 0x11BB JUMPI PUSH1 0x40 MLOAD PUSH32 0x8C379A000000000000000000000000000000000000000000000000000000000 DUP2 MSTORE PUSH1 0x4 ADD PUSH2 0x11B2 SWAP1 PUSH2 0x29E8 JUMP JUMPDEST PUSH1 0x40 MLOAD DUP1 SWAP2 SUB SWAP1 REVERT JUMPDEST CALLER PUSH1 0x1 DUP3 PUSH1 0x40 MLOAD PUSH2 0x11CC SWAP2 SWAP1 PUSH2 0x20D6 JUMP JUMPDEST SWAP1 DUP2 MSTORE PUSH1 0x20 ADD PUSH1 0x40 MLOAD DUP1 SWAP2 SUB SWAP1 KECCAK256 PUSH1 0x0 PUSH2 0x100 EXP DUP2 SLOAD DUP2 PUSH20 0xFFFFFFFFFFFFFFFFFFFFFFFFFFFFFFFFFFFFFFFF MUL NOT AND SWAP1 DUP4 PUSH20 0xFFFFFFFFFFFFFFFFFFFFFFFFFFFFFFFFFFFFFFFF AND MUL OR SWAP1 SSTORE POP PUSH1 0x0 DUP1 CALLER PUSH20 0xFFFFFFFFFFFFFFFFFFFFFFFFFFFFFFFFFFFFFFFF AND PUSH20 0xFFFFFFFFFFFFFFFFFFFFFFFFFFFFFFFFFFFFFFFF AND DUP2 MSTORE PUSH1 0x20 ADD SWAP1 DUP2 MSTORE PUSH1 0x20 ADD PUSH1 0x0 KECCAK256 DUP2 SWAP1 DUP1 PUSH1 0x1 DUP2 SLOAD ADD DUP1 DUP3 SSTORE DUP1 SWAP2 POP POP PUSH1 0x1 SWAP1 SUB SWAP1 PUSH1 0x0 MSTORE PUSH1 0x20 PUSH1 0x0 KECCAK256 ADD PUSH1 0x0 SWAP1 SWAP2 SWAP1 SWAP2 SWAP1 SWAP2 POP SWAP1 DUP2 PUSH2 0x1288 SWAP2 SWAP1 PUSH2 0x2512 JUMP JUMPDEST POP PUSH1 0x1 PUSH1 0x2 DUP3 PUSH1 0x40 MLOAD PUSH2 0x129B SWAP2 SWAP1 PUSH2 0x20D6 JUMP JUMPDEST SWAP1 DUP2 MSTORE PUSH1 0x20 ADD PUSH1 0x40 MLOAD DUP1 SWAP2 SUB SWAP1 KECCAK256 PUSH1 0x0 CALLER PUSH20 0xFFFFFFFFFFFFFFFFFFFFFFFFFFFFFFFFFFFFFFFF AND PUSH20 0xFFFFFFFFFFFFFFFFFFFFFFFFFFFFFFFFFFFFFFFF AND DUP2 MSTORE PUSH1 0x20 ADD SWAP1 DUP2 MSTORE PUSH1 0x20 ADD PUSH1 0x0 KECCAK256 PUSH1 0x0 PUSH2 0x100 EXP DUP2 SLOAD DUP2 PUSH1 0xFF MUL NOT AND SWAP1 DUP4 ISZERO ISZERO MUL OR SWAP1 SSTORE POP PUSH1 0x3 DUP2 PUSH1 0x40 MLOAD PUSH2 0x130D SWAP2 SWAP1 PUSH2 0x20D6 JUMP JUMPDEST SWAP1 DUP2 MSTORE PUSH1 0x20 ADD PUSH1 0x40 MLOAD DUP1 SWAP2 SUB SWAP1 KECCAK256 CALLER SWAP1 DUP1 PUSH1 0x1 DUP2 SLOAD ADD DUP1 DUP3 SSTORE DUP1 SWAP2 POP POP PUSH1 0x1 SWAP1 SUB SWAP1 PUSH1 0x0 MSTORE PUSH1 0x20 PUSH1 0x0 KECCAK256 ADD PUSH1 0x0 SWAP1 SWAP2 SWAP1 SWAP2 SWAP1 SWAP2 PUSH2 0x100 EXP DUP2 SLOAD DUP2 PUSH20 0xFFFFFFFFFFFFFFFFFFFFFFFFFFFFFFFFFFFFFFFF MUL NOT AND SWAP1 DUP4 PUSH20 0xFFFFFFFFFFFFFFFFFFFFFFFFFFFFFFFFFFFFFFFF AND MUL OR SWAP1 SSTORE POP CALLER PUSH20 0xFFFFFFFFFFFFFFFFFFFFFFFFFFFFFFFFFFFFFFFF AND PUSH32 0x771AD20575501C8CAFC4A8793006515911D6E497FD5838018654C9B50347430C DUP3 PUSH1 0x40 MLOAD PUSH2 0x13C2 SWAP2 SWAP1 PUSH2 0x27CA JUMP JUMPDEST PUSH1 0x40 MLOAD DUP1 SWAP2 SUB SWAP1 LOG2 POP JUMP JUMPDEST DUP2 CALLER PUSH20 0xFFFFFFFFFFFFFFFFFFFFFFFFFFFFFFFFFFFFFFFF AND PUSH1 0x1 DUP3 PUSH1 0x40 MLOAD PUSH2 0x13F5 SWAP2 SWAP1 PUSH2 0x20D6 JUMP JUMPDEST SWAP1 DUP2 MSTORE PUSH1 0x20 ADD PUSH1 0x40 MLOAD DUP1 SWAP2 SUB SWAP1 KECCAK256 PUSH1 0x0 SWAP1 SLOAD SWAP1 PUSH2 0x100 EXP SWAP1 DIV PUSH20 0xFFFFFFFFFFFFFFFFFFFFFFFFFFFFFFFFFFFFFFFF AND PUSH20 0xFFFFFFFFFFFFFFFFFFFFFFFFFFFFFFFFFFFFFFFF AND EQ PUSH2 0x147A JUMPI PUSH1 0x40 MLOAD PUSH32 0x8C379A000000000000000000000000000000000000000000000000000000000 DUP2 MSTORE PUSH1 0x4 ADD PUSH2 0x1471 SWAP1 PUSH2 0x2170 JUMP JUMPDEST PUSH1 0x40 MLOAD DUP1 SWAP2 SUB SWAP1 REVERT JUMPDEST PUSH1 0x2 DUP4 PUSH1 0x40 MLOAD PUSH2 0x148A SWAP2 SWAP1 PUSH2 0x20D6 JUMP JUMPDEST SWAP1 DUP2 MSTORE PUSH1 0x20 ADD PUSH1 0x40 MLOAD DUP1 SWAP2 SUB SWAP1 KECCAK256 PUSH1 0x0 DUP4 PUSH20 0xFFFFFFFFFFFFFFFFFFFFFFFFFFFFFFFFFFFFFFFF AND PUSH20 0xFFFFFFFFFFFFFFFFFFFFFFFFFFFFFFFFFFFFFFFF AND DUP2 MSTORE PUSH1 0x20 ADD SWAP1 DUP2 MSTORE PUSH1 0x20 ADD PUSH1 0x0 KECCAK256 PUSH1 0x0 SWAP1 SLOAD SWAP1 PUSH2 0x100 EXP SWAP1 DIV PUSH1 0xFF AND PUSH2 0x1640 JUMPI PUSH1 0x1 PUSH1 0x2 DUP5 PUSH1 0x40 MLOAD PUSH2 0x14F9 SWAP2 SWAP1 PUSH2 0x20D6 JUMP JUMPDEST SWAP1 DUP2 MSTORE PUSH1 0x20 ADD PUSH1 0x40 MLOAD DUP1 SWAP2 SUB SWAP1 KECCAK256 PUSH1 0x0 DUP5 PUSH20 0xFFFFFFFFFFFFFFFFFFFFFFFFFFFFFFFFFFFFFFFF AND PUSH20 0xFFFFFFFFFFFFFFFFFFFFFFFFFFFFFFFFFFFFFFFF AND DUP2 MSTORE PUSH1 0x20 ADD SWAP1 DUP2 MSTORE PUSH1 0x20 ADD PUSH1 0x0 KECCAK256 PUSH1 0x0 PUSH2 0x100 EXP DUP2 SLOAD DUP2 PUSH1 0xFF MUL NOT AND SWAP1 DUP4 ISZERO ISZERO MUL OR SWAP1 SSTORE POP PUSH1 0x3 DUP4 PUSH1 0x40 MLOAD PUSH2 0x156B SWAP2 SWAP1 PUSH2 0x20D6 JUMP JUMPDEST SWAP1 DUP2 MSTORE PUSH1 0x20 ADD PUSH1 0x40 MLOAD DUP1 SWAP2 SUB SWAP1 KECCAK256 DUP3 SWAP1 DUP1 PUSH1 0x1 DUP2 SLOAD ADD DUP1 DUP3 SSTORE DUP1 SWAP2 POP POP PUSH1 0x1 SWAP1 SUB SWAP1 PUSH1 0x0 MSTORE PUSH1 0x20 PUSH1 0x0 KECCAK256 ADD PUSH1 0x0 SWAP1 SWAP2 SWAP1 SWAP2 SWAP1 SWAP2 PUSH2 0x100 EXP DUP2 SLOAD DUP2 PUSH20 0xFFFFFFFFFFFFFFFFFFFFFFFFFFFFFFFFFFFFFFFF MUL NOT AND SWAP1 DUP4 PUSH20 0xFFFFFFFFFFFFFFFFFFFFFFFFFFFFFFFFFFFFFFFF AND MUL OR SWAP1 SSTORE POP DUP2 PUSH20 0xFFFFFFFFFFFFFFFFFFFFFFFFFFFFFFFFFFFFFFFF AND CALLER PUSH20 0xFFFFFFFFFFFFFFFFFFFFFFFFFFFFFFFFFFFFFFFF AND PUSH32 0x1374C56AC5373755358F44713AE3C7F3C5BDE84CB5D9BCBDDF8C15B647ED3403 DUP6 PUSH1 0x40 MLOAD PUSH2 0x1637 SWAP2 SWAP1 PUSH2 0x27CA JUMP JUMPDEST PUSH1 0x40 MLOAD DUP1 SWAP2 SUB SWAP1 LOG3 JUMPDEST POP POP POP JUMP JUMPDEST PUSH1 0x0 JUMPDEST DUP3 DUP1 SLOAD SWAP1 POP DUP2 LT ISZERO PUSH2 0x17CB JUMPI DUP2 PUSH20 0xFFFFFFFFFFFFFFFFFFFFFFFFFFFFFFFFFFFFFFFF AND DUP4 DUP3 DUP2 SLOAD DUP2 LT PUSH2 0x167E JUMPI PUSH2 0x167D PUSH2 0x21FC JUMP JUMPDEST JUMPDEST SWAP1 PUSH1 0x0 MSTORE PUSH1 0x20 PUSH1 0x0 KECCAK256 ADD PUSH1 0x0 SWAP1 SLOAD SWAP1 PUSH2 0x100 EXP SWAP1 DIV PUSH20 0xFFFFFFFFFFFFFFFFFFFFFFFFFFFFFFFFFFFFFFFF AND PUSH20 0xFFFFFFFFFFFFFFFFFFFFFFFFFFFFFFFFFFFFFFFF AND SUB PUSH2 0x17B8 JUMPI DUP3 PUSH1 0x1 DUP5 DUP1 SLOAD SWAP1 POP PUSH2 0x16D6 SWAP2 SWAP1 PUSH2 0x2654 JUMP JUMPDEST DUP2 SLOAD DUP2 LT PUSH2 0x16E7 JUMPI PUSH2 0x16E6 PUSH2 0x21FC JUMP JUMPDEST JUMPDEST SWAP1 PUSH1 0x0 MSTORE PUSH1 0x20 PUSH1 0x0 KECCAK256 ADD PUSH1 0x0 SWAP1 SLOAD SWAP1 PUSH2 0x100 EXP SWAP1 DIV PUSH20 0xFFFFFFFFFFFFFFFFFFFFFFFFFFFFFFFFFFFFFFFF AND DUP4 DUP3 DUP2 SLOAD DUP2 LT PUSH2 0x1725 JUMPI PUSH2 0x1724 PUSH2 0x21FC JUMP JUMPDEST JUMPDEST SWAP1 PUSH1 0x0 MSTORE PUSH1 0x20 PUSH1 0x0 KECCAK256 ADD PUSH1 0x0 PUSH2 0x100 EXP DUP2 SLOAD DUP2 PUSH20 0xFFFFFFFFFFFFFFFFFFFFFFFFFFFFFFFFFFFFFFFF MUL NOT AND SWAP1 DUP4 PUSH20 0xFFFFFFFFFFFFFFFFFFFFFFFFFFFFFFFFFFFFFFFF AND MUL OR SWAP1 SSTORE POP DUP3 DUP1 SLOAD DUP1 PUSH2 0x177E JUMPI PUSH2 0x177D PUSH2 0x279B JUMP JUMPDEST JUMPDEST PUSH1 0x1 SWAP1 SUB DUP2 DUP2 SWAP1 PUSH1 0x0 MSTORE PUSH1 0x20 PUSH1 0x0 KECCAK256 ADD PUSH1 0x0 PUSH2 0x100 EXP DUP2 SLOAD SWAP1 PUSH20 0xFFFFFFFFFFFFFFFFFFFFFFFFFFFFFFFFFFFFFFFF MUL NOT AND SWAP1 SSTORE SWAP1 SSTORE PUSH2 0x17CB JUMP JUMPDEST DUP1 DUP1 PUSH2 0x17C3 SWAP1 PUSH2 0x2264 JUMP JUMPDEST SWAP2 POP POP PUSH2 0x1648 JUMP JUMPDEST POP POP POP JUMP JUMPDEST DUP3 DUP1 SLOAD DUP3 DUP3 SSTORE SWAP1 PUSH1 0x0 MSTORE PUSH1 0x20 PUSH1 0x0 KECCAK256 SWAP1 DUP2 ADD SWAP3 DUP3 ISZERO PUSH2 0x1849 JUMPI SWAP2 PUSH1 0x20 MUL DUP3 ADD JUMPDEST DUP3 DUP2 GT ISZERO PUSH2 0x1848 JUMPI DUP3 MLOAD DUP3 PUSH1 0x0 PUSH2 0x100 EXP DUP2 SLOAD DUP2 PUSH20 0xFFFFFFFFFFFFFFFFFFFFFFFFFFFFFFFFFFFFFFFF MUL NOT AND SWAP1 DUP4 PUSH20 0xFFFFFFFFFFFFFFFFFFFFFFFFFFFFFFFFFFFFFFFF AND MUL OR SWAP1 SSTORE POP SWAP2 PUSH1 0x20 ADD SWAP2 SWAP1 PUSH1 0x1 ADD SWAP1 PUSH2 0x17F0 JUMP JUMPDEST JUMPDEST POP SWAP1 POP PUSH2 0x1856 SWAP2 SWAP1 PUSH2 0x18BB JUMP JUMPDEST POP SWAP1 JUMP JUMPDEST POP DUP1 SLOAD PUSH1 0x0 DUP3 SSTORE SWAP1 PUSH1 0x0 MSTORE PUSH1 0x20 PUSH1 0x0 KECCAK256 SWAP1 DUP2 ADD SWAP1 PUSH2 0x1878 SWAP2 SWAP1 PUSH2 0x18BB JUMP JUMPDEST POP JUMP JUMPDEST POP DUP1 SLOAD PUSH2 0x1887 SWAP1 PUSH2 0x2069 JUMP JUMPDEST PUSH1 0x0 DUP3 SSTORE DUP1 PUSH1 0x1F LT PUSH2 0x1899 JUMPI POP PUSH2 0x18B8 JUMP JUMPDEST PUSH1 0x1F ADD PUSH1 0x20 SWAP1 DIV SWAP1 PUSH1 0x0 MSTORE PUSH1 0x20 PUSH1 0x0 KECCAK256 SWAP1 DUP2 ADD SWAP1 PUSH2 0x18B7 SWAP2 SWAP1 PUSH2 0x18BB JUMP JUMPDEST JUMPDEST POP JUMP JUMPDEST JUMPDEST DUP1 DUP3 GT ISZERO PUSH2 0x18D4 JUMPI PUSH1 0x0 DUP2 PUSH1 0x0 SWAP1 SSTORE POP PUSH1 0x1 ADD PUSH2 0x18BC JUMP JUMPDEST POP SWAP1 JUMP JUMPDEST PUSH1 0x0 PUSH1 0x40 MLOAD SWAP1 POP SWAP1 JUMP JUMPDEST PUSH1 0x0 DUP1 REVERT JUMPDEST PUSH1 0x0 DUP1 REVERT JUMPDEST PUSH1 0x0 PUSH20 0xFFFFFFFFFFFFFFFFFFFFFFFFFFFFFFFFFFFFFFFF DUP3 AND SWAP1 POP SWAP2 SWAP1 POP JUMP JUMPDEST PUSH1 0x0 PUSH2 0x1917 DUP3 PUSH2 0x18EC JUMP JUMPDEST SWAP1 POP SWAP2 SWAP1 POP JUMP JUMPDEST PUSH2 0x1927 DUP2 PUSH2 0x190C JUMP JUMPDEST DUP2 EQ PUSH2 0x1932 JUMPI PUSH1 0x0 DUP1 REVERT JUMPDEST POP JUMP JUMPDEST PUSH1 0x0 DUP2 CALLDATALOAD SWAP1 POP PUSH2 0x1944 DUP2 PUSH2 0x191E JUMP JUMPDEST SWAP3 SWAP2 POP POP JUMP JUMPDEST PUSH1 0x0 PUSH1 0x20 DUP3 DUP5 SUB SLT ISZERO PUSH2 0x1960 JUMPI PUSH2 0x195F PUSH2 0x18E2 JUMP JUMPDEST JUMPDEST PUSH1 0x0 PUSH2 0x196E DUP5 DUP3 DUP6 ADD PUSH2 0x1935 JUMP JUMPDEST SWAP2 POP POP SWAP3 SWAP2 POP POP JUMP JUMPDEST PUSH1 0x0 DUP2 MLOAD SWAP1 POP SWAP2 SWAP1 POP JUMP JUMPDEST PUSH1 0x0 DUP3 DUP3 MSTORE PUSH1 0x20 DUP3 ADD SWAP1 POP SWAP3 SWAP2 POP POP JUMP JUMPDEST PUSH1 0x0 DUP2 SWAP1 POP PUSH1 0x20 DUP3 ADD SWAP1 POP SWAP2 SWAP1 POP JUMP JUMPDEST PUSH1 0x0 DUP2 MLOAD SWAP1 POP SWAP2 SWAP1 POP JUMP JUMPDEST PUSH1 0x0 DUP3 DUP3 MSTORE PUSH1 0x20 DUP3 ADD SWAP1 POP SWAP3 SWAP2 POP POP JUMP JUMPDEST PUSH1 0x0 JUMPDEST DUP4 DUP2 LT ISZERO PUSH2 0x19DD JUMPI DUP1 DUP3 ADD MLOAD DUP2 DUP5 ADD MSTORE PUSH1 0x20 DUP2 ADD SWAP1 POP PUSH2 0x19C2 JUMP JUMPDEST PUSH1 0x0 DUP5 DUP5 ADD MSTORE POP POP POP POP JUMP JUMPDEST PUSH1 0x0 PUSH1 0x1F NOT PUSH1 0x1F DUP4 ADD AND SWAP1 POP SWAP2 SWAP1 POP JUMP JUMPDEST PUSH1 0x0 PUSH2 0x1A05 DUP3 PUSH2 0x19A3 JUMP JUMPDEST PUSH2 0x1A0F DUP2 DUP6 PUSH2 0x19AE JUMP JUMPDEST SWAP4 POP PUSH2 0x1A1F DUP2 DUP6 PUSH1 0x20 DUP7 ADD PUSH2 0x19BF JUMP JUMPDEST PUSH2 0x1A28 DUP2 PUSH2 0x19E9 JUMP JUMPDEST DUP5 ADD SWAP2 POP POP SWAP3 SWAP2 POP POP JUMP JUMPDEST PUSH1 0x0 PUSH2 0x1A3F DUP4 DUP4 PUSH2 0x19FA JUMP JUMPDEST SWAP1 POP SWAP3 SWAP2 POP POP JUMP JUMPDEST PUSH1 0x0 PUSH1 0x20 DUP3 ADD SWAP1 POP SWAP2 SWAP1 POP JUMP JUMPDEST PUSH1 0x0 PUSH2 0x1A5F DUP3 PUSH2 0x1977 JUMP JUMPDEST PUSH2 0x1A69 DUP2 DUP6 PUSH2 0x1982 JUMP JUMPDEST SWAP4 POP DUP4 PUSH1 0x20 DUP3 MUL DUP6 ADD PUSH2 0x1A7B DUP6 PUSH2 0x1993 JUMP JUMPDEST DUP1 PUSH1 0x0 JUMPDEST DUP6 DUP2 LT ISZERO PUSH2 0x1AB7 JUMPI DUP5 DUP5 SUB DUP10 MSTORE DUP2 MLOAD PUSH2 0x1A98 DUP6 DUP3 PUSH2 0x1A33 JUMP JUMPDEST SWAP5 POP PUSH2 0x1AA3 DUP4 PUSH2 0x1A47 JUMP JUMPDEST SWAP3 POP PUSH1 0x20 DUP11 ADD SWAP10 POP POP PUSH1 0x1 DUP2 ADD SWAP1 POP PUSH2 0x1A7F JUMP JUMPDEST POP DUP3 SWAP8 POP DUP8 SWAP6 POP POP POP POP POP POP SWAP3 SWAP2 POP POP JUMP JUMPDEST PUSH1 0x0 PUSH1 0x20 DUP3 ADD SWAP1 POP DUP2 DUP2 SUB PUSH1 0x0 DUP4 ADD MSTORE PUSH2 0x1AE3 DUP2 DUP5 PUSH2 0x1A54 JUMP JUMPDEST SWAP1 POP SWAP3 SWAP2 POP POP JUMP JUMPDEST PUSH1 0x0 DUP1 REVERT JUMPDEST PUSH1 0x0 DUP1 REVERT JUMPDEST PUSH32 0x4E487B7100000000000000000000000000000000000000000000000000000000 PUSH1 0x0 MSTORE PUSH1 0x41 PUSH1 0x4 MSTORE PUSH1 0x24 PUSH1 0x0 REVERT JUMPDEST PUSH2 0x1B2D DUP3 PUSH2 0x19E9 JUMP JUMPDEST DUP2 ADD DUP2 DUP2 LT PUSH8 0xFFFFFFFFFFFFFFFF DUP3 GT OR ISZERO PUSH2 0x1B4C JUMPI PUSH2 0x1B4B PUSH2 0x1AF5 JUMP JUMPDEST JUMPDEST DUP1 PUSH1 0x40 MSTORE POP POP POP JUMP JUMPDEST PUSH1 0x0 PUSH2 0x1B5F PUSH2 0x18D8 JUMP JUMPDEST SWAP1 POP PUSH2 0x1B6B DUP3 DUP3 PUSH2 0x1B24 JUMP JUMPDEST SWAP2 SWAP1 POP JUMP JUMPDEST PUSH1 0x0 PUSH8 0xFFFFFFFFFFFFFFFF DUP3 GT ISZERO PUSH2 0x1B8B JUMPI PUSH2 0x1B8A PUSH2 0x1AF5 JUMP JUMPDEST JUMPDEST PUSH2 0x1B94 DUP3 PUSH2 0x19E9 JUMP JUMPDEST SWAP1 POP PUSH1 0x20 DUP2 ADD SWAP1 POP SWAP2 SWAP1 POP JUMP JUMPDEST DUP3 DUP2 DUP4 CALLDATACOPY PUSH1 0x0 DUP4 DUP4 ADD MSTORE POP POP POP JUMP JUMPDEST PUSH1 0x0 PUSH2 0x1BC3 PUSH2 0x1BBE DUP5 PUSH2 0x1B70 JUMP JUMPDEST PUSH2 0x1B55 JUMP JUMPDEST SWAP1 POP DUP3 DUP2 MSTORE PUSH1 0x20 DUP2 ADD DUP5 DUP5 DUP5 ADD GT ISZERO PUSH2 0x1BDF JUMPI PUSH2 0x1BDE PUSH2 0x1AF0 JUMP JUMPDEST JUMPDEST PUSH2 0x1BEA DUP5 DUP3 DUP6 PUSH2 0x1BA1 JUMP JUMPDEST POP SWAP4 SWAP3 POP POP POP JUMP JUMPDEST PUSH1 0x0 DUP3 PUSH1 0x1F DUP4 ADD SLT PUSH2 0x1C07 JUMPI PUSH2 0x1C06 PUSH2 0x1AEB JUMP JUMPDEST JUMPDEST DUP2 CALLDATALOAD PUSH2 0x1C17 DUP5 DUP3 PUSH1 0x20 DUP7 ADD PUSH2 0x1BB0 JUMP JUMPDEST SWAP2 POP POP SWAP3 SWAP2 POP POP JUMP JUMPDEST PUSH1 0x0 DUP1 PUSH1 0x40 DUP4 DUP6 SUB SLT ISZERO PUSH2 0x1C37 JUMPI PUSH2 0x1C36 PUSH2 0x18E2 JUMP JUMPDEST JUMPDEST PUSH1 0x0 DUP4 ADD CALLDATALOAD PUSH8 0xFFFFFFFFFFFFFFFF DUP2 GT ISZERO PUSH2 0x1C55 JUMPI PUSH2 0x1C54 PUSH2 0x18E7 JUMP JUMPDEST JUMPDEST PUSH2 0x1C61 DUP6 DUP3 DUP7 ADD PUSH2 0x1BF2 JUMP JUMPDEST SWAP3 POP POP PUSH1 0x20 DUP4 ADD CALLDATALOAD PUSH8 0xFFFFFFFFFFFFFFFF DUP2 GT ISZERO PUSH2 0x1C82 JUMPI PUSH2 0x1C81 PUSH2 0x18E7 JUMP JUMPDEST JUMPDEST PUSH2 0x1C8E DUP6 DUP3 DUP7 ADD PUSH2 0x1BF2 JUMP JUMPDEST SWAP2 POP POP SWAP3 POP SWAP3 SWAP1 POP JUMP JUMPDEST PUSH1 0x0 PUSH1 0x20 DUP3 DUP5 SUB SLT ISZERO PUSH2 0x1CAE JUMPI PUSH2 0x1CAD PUSH2 0x18E2 JUMP JUMPDEST JUMPDEST PUSH1 0x0 DUP3 ADD CALLDATALOAD PUSH8 0xFFFFFFFFFFFFFFFF DUP2 GT ISZERO PUSH2 0x1CCC JUMPI PUSH2 0x1CCB PUSH2 0x18E7 JUMP JUMPDEST JUMPDEST PUSH2 0x1CD8 DUP5 DUP3 DUP6 ADD PUSH2 0x1BF2 JUMP JUMPDEST SWAP2 POP POP SWAP3 SWAP2 POP POP JUMP JUMPDEST PUSH1 0x0 DUP2 ISZERO ISZERO SWAP1 POP SWAP2 SWAP1 POP JUMP JUMPDEST PUSH2 0x1CF6 DUP2 PUSH2 0x1CE1 JUMP JUMPDEST DUP3 MSTORE POP POP JUMP JUMPDEST PUSH1 0x0 PUSH1 0x20 DUP3 ADD SWAP1 POP PUSH2 0x1D11 PUSH1 0x0 DUP4 ADD DUP5 PUSH2 0x1CED JUMP JUMPDEST SWAP3 SWAP2 POP POP JUMP JUMPDEST PUSH2 0x1D20 DUP2 PUSH2 0x190C JUMP JUMPDEST DUP3 MSTORE POP POP JUMP JUMPDEST PUSH1 0x0 PUSH1 0x20 DUP3 ADD SWAP1 POP PUSH2 0x1D3B PUSH1 0x0 DUP4 ADD DUP5 PUSH2 0x1D17 JUMP JUMPDEST SWAP3 SWAP2 POP POP JUMP JUMPDEST PUSH1 0x0 DUP2 MLOAD SWAP1 POP SWAP2 SWAP1 POP JUMP JUMPDEST PUSH1 0x0 DUP3 DUP3 MSTORE PUSH1 0x20 DUP3 ADD SWAP1 POP SWAP3 SWAP2 POP POP JUMP JUMPDEST PUSH1 0x0 DUP2 SWAP1 POP PUSH1 0x20 DUP3 ADD SWAP1 POP SWAP2 SWAP1 POP JUMP JUMPDEST PUSH2 0x1D76 DUP2 PUSH2 0x190C JUMP JUMPDEST DUP3 MSTORE POP POP JUMP JUMPDEST PUSH1 0x0 PUSH2 0x1D88 DUP4 DUP4 PUSH2 0x1D6D JUMP JUMPDEST PUSH1 0x20 DUP4 ADD SWAP1 POP SWAP3 SWAP2 POP POP JUMP JUMPDEST PUSH1 0x0 PUSH1 0x20 DUP3 ADD SWAP1 POP SWAP2 SWAP1 POP JUMP JUMPDEST PUSH1 0x0 PUSH2 0x1DAC DUP3 PUSH2 0x1D41 JUMP JUMPDEST PUSH2 0x1DB6 DUP2 DUP6 PUSH2 0x1D4C JUMP JUMPDEST SWAP4 POP PUSH2 0x1DC1 DUP4 PUSH2 0x1D5D JUMP JUMPDEST DUP1 PUSH1 0x0 JUMPDEST DUP4 DUP2 LT ISZERO PUSH2 0x1DF2 JUMPI DUP2 MLOAD PUSH2 0x1DD9 DUP9 DUP3 PUSH2 0x1D7C JUMP JUMPDEST SWAP8 POP PUSH2 0x1DE4 DUP4 PUSH2 0x1D94 JUMP JUMPDEST SWAP3 POP POP PUSH1 0x1 DUP2 ADD SWAP1 POP PUSH2 0x1DC5 JUMP JUMPDEST POP DUP6 SWAP4 POP POP POP POP SWAP3 SWAP2 POP POP JUMP JUMPDEST PUSH1 0x0 PUSH1 0x20 DUP3 ADD SWAP1 POP DUP2 DUP2 SUB PUSH1 0x0 DUP4 ADD MSTORE PUSH2 0x1E19 DUP2 DUP5 PUSH2 0x1DA1 JUMP JUMPDEST SWAP1 POP SWAP3 SWAP2 POP POP JUMP JUMPDEST PUSH1 0x0 DUP1 PUSH1 0x40 DUP4 DUP6 SUB SLT ISZERO PUSH2 0x1E38 JUMPI PUSH2 0x1E37 PUSH2 0x18E2 JUMP JUMPDEST JUMPDEST PUSH1 0x0 DUP4 ADD CALLDATALOAD PUSH8 0xFFFFFFFFFFFFFFFF DUP2 GT ISZERO PUSH2 0x1E56 JUMPI PUSH2 0x1E55 PUSH2 0x18E7 JUMP JUMPDEST JUMPDEST PUSH2 0x1E62 DUP6 DUP3 DUP7 ADD PUSH2 0x1BF2 JUMP JUMPDEST SWAP3 POP POP PUSH1 0x20 PUSH2 0x1E73 DUP6 DUP3 DUP7 ADD PUSH2 0x1935 JUMP JUMPDEST SWAP2 POP POP SWAP3 POP SWAP3 SWAP1 POP JUMP JUMPDEST PUSH1 0x0 PUSH8 0xFFFFFFFFFFFFFFFF DUP3 GT ISZERO PUSH2 0x1E98 JUMPI PUSH2 0x1E97 PUSH2 0x1AF5 JUMP JUMPDEST JUMPDEST PUSH1 0x20 DUP3 MUL SWAP1 POP PUSH1 0x20 DUP2 ADD SWAP1 POP SWAP2 SWAP1 POP JUMP JUMPDEST PUSH1 0x0 DUP1 REVERT JUMPDEST PUSH1 0x0 PUSH2 0x1EC1 PUSH2 0x1EBC DUP5 PUSH2 0x1E7D JUMP JUMPDEST PUSH2 0x1B55 JUMP JUMPDEST SWAP1 POP DUP1 DUP4 DUP3 MSTORE PUSH1 0x20 DUP3 ADD SWAP1 POP PUSH1 0x20 DUP5 MUL DUP4 ADD DUP6 DUP2 GT ISZERO PUSH2 0x1EE4 JUMPI PUSH2 0x1EE3 PUSH2 0x1EA9 JUMP JUMPDEST JUMPDEST DUP4 JUMPDEST DUP2 DUP2 LT ISZERO PUSH2 0x1F2B JUMPI DUP1 CALLDATALOAD PUSH8 0xFFFFFFFFFFFFFFFF DUP2 GT ISZERO PUSH2 0x1F09 JUMPI PUSH2 0x1F08 PUSH2 0x1AEB JUMP JUMPDEST JUMPDEST DUP1 DUP7 ADD PUSH2 0x1F16 DUP10 DUP3 PUSH2 0x1BF2 JUMP JUMPDEST DUP6 MSTORE PUSH1 0x20 DUP6 ADD SWAP5 POP POP POP PUSH1 0x20 DUP2 ADD SWAP1 POP PUSH2 0x1EE6 JUMP JUMPDEST POP POP POP SWAP4 SWAP3 POP POP POP JUMP JUMPDEST PUSH1 0x0 DUP3 PUSH1 0x1F DUP4 ADD SLT PUSH2 0x1F4A JUMPI PUSH2 0x1F49 PUSH2 0x1AEB JUMP JUMPDEST JUMPDEST DUP2 CALLDATALOAD PUSH2 0x1F5A DUP5 DUP3 PUSH1 0x20 DUP7 ADD PUSH2 0x1EAE JUMP JUMPDEST SWAP2 POP POP SWAP3 SWAP2 POP POP JUMP JUMPDEST PUSH1 0x0 DUP1 PUSH1 0x0 DUP1 PUSH1 0x80 DUP6 DUP8 SUB SLT ISZERO PUSH2 0x1F7D JUMPI PUSH2 0x1F7C PUSH2 0x18E2 JUMP JUMPDEST JUMPDEST PUSH1 0x0 DUP6 ADD CALLDATALOAD PUSH8 0xFFFFFFFFFFFFFFFF DUP2 GT ISZERO PUSH2 0x1F9B JUMPI PUSH2 0x1F9A PUSH2 0x18E7 JUMP JUMPDEST JUMPDEST PUSH2 0x1FA7 DUP8 DUP3 DUP9 ADD PUSH2 0x1F35 JUMP JUMPDEST SWAP5 POP POP PUSH1 0x20 DUP6 ADD CALLDATALOAD PUSH8 0xFFFFFFFFFFFFFFFF DUP2 GT ISZERO PUSH2 0x1FC8 JUMPI PUSH2 0x1FC7 PUSH2 0x18E7 JUMP JUMPDEST JUMPDEST PUSH2 0x1FD4 DUP8 DUP3 DUP9 ADD PUSH2 0x1F35 JUMP JUMPDEST SWAP4 POP POP PUSH1 0x40 DUP6 ADD CALLDATALOAD PUSH8 0xFFFFFFFFFFFFFFFF DUP2 GT ISZERO PUSH2 0x1FF5 JUMPI PUSH2 0x1FF4 PUSH2 0x18E7 JUMP JUMPDEST JUMPDEST PUSH2 0x2001 DUP8 DUP3 DUP9 ADD PUSH2 0x1F35 JUMP JUMPDEST SWAP3 POP POP PUSH1 0x60 DUP6 ADD CALLDATALOAD PUSH8 0xFFFFFFFFFFFFFFFF DUP2 GT ISZERO PUSH2 0x2022 JUMPI PUSH2 0x2021 PUSH2 0x18E7 JUMP JUMPDEST JUMPDEST PUSH2 0x202E DUP8 DUP3 DUP9 ADD PUSH2 0x1F35 JUMP JUMPDEST SWAP2 POP POP SWAP3 SWAP6 SWAP2 SWAP5 POP SWAP3 POP JUMP JUMPDEST PUSH32 0x4E487B7100000000000000000000000000000000000000000000000000000000 PUSH1 0x0 MSTORE PUSH1 0x22 PUSH1 0x4 MSTORE PUSH1 0x24 PUSH1 0x0 REVERT JUMPDEST PUSH1 0x0 PUSH1 0x2 DUP3 DIV SWAP1 POP PUSH1 0x1 DUP3 AND DUP1 PUSH2 0x2081 JUMPI PUSH1 0x7F DUP3 AND SWAP2 POP JUMPDEST PUSH1 0x20 DUP3 LT DUP2 SUB PUSH2 0x2094 JUMPI PUSH2 0x2093 PUSH2 0x203A JUMP JUMPDEST JUMPDEST POP SWAP2 SWAP1 POP JUMP JUMPDEST PUSH1 0x0 DUP2 SWAP1 POP SWAP3 SWAP2 POP POP JUMP JUMPDEST PUSH1 0x0 PUSH2 0x20B0 DUP3 PUSH2 0x19A3 JUMP JUMPDEST PUSH2 0x20BA DUP2 DUP6 PUSH2 0x209A JUMP JUMPDEST SWAP4 POP PUSH2 0x20CA DUP2 DUP6 PUSH1 0x20 DUP7 ADD PUSH2 0x19BF JUMP JUMPDEST DUP1 DUP5 ADD SWAP2 POP POP SWAP3 SWAP2 POP POP JUMP JUMPDEST PUSH1 0x0 PUSH2 0x20E2 DUP3 DUP5 PUSH2 0x20A5 JUMP JUMPDEST SWAP2 POP DUP2 SWAP1 POP SWAP3 SWAP2 POP POP JUMP JUMPDEST PUSH1 0x0 DUP3 DUP3 MSTORE PUSH1 0x20 DUP3 ADD SWAP1 POP SWAP3 SWAP2 POP POP JUMP JUMPDEST PUSH32 0x4F6E6C792066696C65206F776E65722063616E20706572666F726D2074686973 PUSH1 0x0 DUP3 ADD MSTORE PUSH32 0x20616374696F6E2E000000000000000000000000000000000000000000000000 PUSH1 0x20 DUP3 ADD MSTORE POP JUMP JUMPDEST PUSH1 0x0 PUSH2 0x215A PUSH1 0x28 DUP4 PUSH2 0x20ED JUMP JUMPDEST SWAP2 POP PUSH2 0x2165 DUP3 PUSH2 0x20FE JUMP JUMPDEST PUSH1 0x40 DUP3 ADD SWAP1 POP SWAP2 SWAP1 POP JUMP JUMPDEST PUSH1 0x0 PUSH1 0x20 DUP3 ADD SWAP1 POP DUP2 DUP2 SUB PUSH1 0x0 DUP4 ADD MSTORE PUSH2 0x2189 DUP2 PUSH2 0x214D JUMP JUMPDEST SWAP1 POP SWAP2 SWAP1 POP JUMP JUMPDEST PUSH32 0x4E65772043494420616C72656164792065786973747300000000000000000000 PUSH1 0x0 DUP3 ADD MSTORE POP JUMP JUMPDEST PUSH1 0x0 PUSH2 0x21C6 PUSH1 0x16 DUP4 PUSH2 0x20ED JUMP JUMPDEST SWAP2 POP PUSH2 0x21D1 DUP3 PUSH2 0x2190 JUMP JUMPDEST PUSH1 0x20 DUP3 ADD SWAP1 POP SWAP2 SWAP1 POP JUMP JUMPDEST PUSH1 0x0 PUSH1 0x20 DUP3 ADD SWAP1 POP DUP2 DUP2 SUB PUSH1 0x0 DUP4 ADD MSTORE PUSH2 0x21F5 DUP2 PUSH2 0x21B9 JUMP JUMPDEST SWAP1 POP SWAP2 SWAP1 POP JUMP JUMPDEST PUSH32 0x4E487B7100000000000000000000000000000000000000000000000000000000 PUSH1 0x0 MSTORE PUSH1 0x32 PUSH1 0x4 MSTORE PUSH1 0x24 PUSH1 0x0 REVERT JUMPDEST PUSH32 0x4E487B7100000000000000000000000000000000000000000000000000000000 PUSH1 0x0 MSTORE PUSH1 0x11 PUSH1 0x4 MSTORE PUSH1 0x24 PUSH1 0x0 REVERT JUMPDEST PUSH1 0x0 DUP2 SWAP1 POP SWAP2 SWAP1 POP JUMP JUMPDEST PUSH1 0x0 PUSH2 0x226F DUP3 PUSH2 0x225A JUMP JUMPDEST SWAP2 POP PUSH32 0xFFFFFFFFFFFFFFFFFFFFFFFFFFFFFFFFFFFFFFFFFFFFFFFFFFFFFFFFFFFFFFFF DUP3 SUB PUSH2 0x22A1 JUMPI PUSH2 0x22A0 PUSH2 0x222B JUMP JUMPDEST JUMPDEST PUSH1 0x1 DUP3 ADD SWAP1 POP SWAP2 SWAP1 POP JUMP JUMPDEST PUSH1 0x0 DUP2 SWAP1 POP SWAP3 SWAP2 POP POP JUMP JUMPDEST PUSH1 0x0 DUP2 SWAP1 POP DUP2 PUSH1 0x0 MSTORE PUSH1 0x20 PUSH1 0x0 KECCAK256 SWAP1 POP SWAP2 SWAP1 POP JUMP JUMPDEST PUSH1 0x0 DUP2 SLOAD PUSH2 0x22D9 DUP2 PUSH2 0x2069 JUMP JUMPDEST PUSH2 0x22E3 DUP2 DUP7 PUSH2 0x22AC JUMP JUMPDEST SWAP5 POP PUSH1 0x1 DUP3 AND PUSH1 0x0 DUP2 EQ PUSH2 0x22FE JUMPI PUSH1 0x1 DUP2 EQ PUSH2 0x2313 JUMPI PUSH2 0x2346 JUMP JUMPDEST PUSH1 0xFF NOT DUP4 AND DUP7 MSTORE DUP2 ISZERO ISZERO DUP3 MUL DUP7 ADD SWAP4 POP PUSH2 0x2346 JUMP JUMPDEST PUSH2 0x231C DUP6 PUSH2 0x22B7 JUMP JUMPDEST PUSH1 0x0 JUMPDEST DUP4 DUP2 LT ISZERO PUSH2 0x233E JUMPI DUP2 SLOAD DUP2 DUP10 ADD MSTORE PUSH1 0x1 DUP3 ADD SWAP2 POP PUSH1 0x20 DUP2 ADD SWAP1 POP PUSH2 0x231F JUMP JUMPDEST DUP4 DUP9 ADD SWAP6 POP POP POP JUMPDEST POP POP POP SWAP3 SWAP2 POP POP JUMP JUMPDEST PUSH1 0x0 PUSH2 0x235B DUP3 DUP5 PUSH2 0x22CC JUMP JUMPDEST SWAP2 POP DUP2 SWAP1 POP SWAP3 SWAP2 POP POP JUMP JUMPDEST PUSH1 0x0 DUP2 SWAP1 POP DUP2 PUSH1 0x0 MSTORE PUSH1 0x20 PUSH1 0x0 KECCAK256 SWAP1 POP SWAP2 SWAP1 POP JUMP JUMPDEST PUSH1 0x0 PUSH1 0x20 PUSH1 0x1F DUP4 ADD DIV SWAP1 POP SWAP2 SWAP1 POP JUMP JUMPDEST PUSH1 0x0 DUP3 DUP3 SHL SWAP1 POP SWAP3 SWAP2 POP POP JUMP JUMPDEST PUSH1 0x0 PUSH1 0x8 DUP4 MUL PUSH2 0x23C8 PUSH32 0xFFFFFFFFFFFFFFFFFFFFFFFFFFFFFFFFFFFFFFFFFFFFFFFFFFFFFFFFFFFFFFFF DUP3 PUSH2 0x238B JUMP JUMPDEST PUSH2 0x23D2 DUP7 DUP4 PUSH2 0x238B JUMP JUMPDEST SWAP6 POP DUP1 NOT DUP5 AND SWAP4 POP DUP1 DUP7 AND DUP5 OR SWAP3 POP POP POP SWAP4 SWAP3 POP POP POP JUMP JUMPDEST PUSH1 0x0 DUP2 SWAP1 POP SWAP2 SWAP1 POP JUMP JUMPDEST PUSH1 0x0 PUSH2 0x240F PUSH2 0x240A PUSH2 0x2405 DUP5 PUSH2 0x225A JUMP JUMPDEST PUSH2 0x23EA JUMP JUMPDEST PUSH2 0x225A JUMP JUMPDEST SWAP1 POP SWAP2 SWAP1 POP JUMP JUMPDEST PUSH1 0x0 DUP2 SWAP1 POP SWAP2 SWAP1 POP JUMP JUMPDEST PUSH2 0x2429 DUP4 PUSH2 0x23F4 JUMP JUMPDEST PUSH2 0x243D PUSH2 0x2435 DUP3 PUSH2 0x2416 JUMP JUMPDEST DUP5 DUP5 SLOAD PUSH2 0x2398 JUMP JUMPDEST DUP3 SSTORE POP POP POP POP JUMP JUMPDEST PUSH1 0x0 SWAP1 JUMP JUMPDEST PUSH2 0x2452 PUSH2 0x2445 JUMP JUMPDEST PUSH2 0x245D DUP2 DUP5 DUP5 PUSH2 0x2420 JUMP JUMPDEST POP POP POP JUMP JUMPDEST JUMPDEST DUP2 DUP2 LT ISZERO PUSH2 0x2481 JUMPI PUSH2 0x2476 PUSH1 0x0 DUP3 PUSH2 0x244A JUMP JUMPDEST PUSH1 0x1 DUP2 ADD SWAP1 POP PUSH2 0x2463 JUMP JUMPDEST POP POP JUMP JUMPDEST PUSH1 0x1F DUP3 GT ISZERO PUSH2 0x24C6 JUMPI PUSH2 0x2497 DUP2 PUSH2 0x2366 JUMP JUMPDEST PUSH2 0x24A0 DUP5 PUSH2 0x237B JUMP JUMPDEST DUP2 ADD PUSH1 0x20 DUP6 LT ISZERO PUSH2 0x24AF JUMPI DUP2 SWAP1 POP JUMPDEST PUSH2 0x24C3 PUSH2 0x24BB DUP6 PUSH2 0x237B JUMP JUMPDEST DUP4 ADD DUP3 PUSH2 0x2462 JUMP JUMPDEST POP POP JUMPDEST POP POP POP JUMP JUMPDEST PUSH1 0x0 DUP3 DUP3 SHR SWAP1 POP SWAP3 SWAP2 POP POP JUMP JUMPDEST PUSH1 0x0 PUSH2 0x24E9 PUSH1 0x0 NOT DUP5 PUSH1 0x8 MUL PUSH2 0x24CB JUMP JUMPDEST NOT DUP1 DUP4 AND SWAP2 POP POP SWAP3 SWAP2 POP POP JUMP JUMPDEST PUSH1 0x0 PUSH2 0x2502 DUP4 DUP4 PUSH2 0x24D8 JUMP JUMPDEST SWAP2 POP DUP3 PUSH1 0x2 MUL DUP3 OR SWAP1 POP SWAP3 SWAP2 POP POP JUMP JUMPDEST PUSH2 0x251B DUP3 PUSH2 0x19A3 JUMP JUMPDEST PUSH8 0xFFFFFFFFFFFFFFFF DUP2 GT ISZERO PUSH2 0x2534 JUMPI PUSH2 0x2533 PUSH2 0x1AF5 JUMP JUMPDEST JUMPDEST PUSH2 0x253E DUP3 SLOAD PUSH2 0x2069 JUMP JUMPDEST PUSH2 0x2549 DUP3 DUP3 DUP6 PUSH2 0x2485 JUMP JUMPDEST PUSH1 0x0 PUSH1 0x20 SWAP1 POP PUSH1 0x1F DUP4 GT PUSH1 0x1 DUP2 EQ PUSH2 0x257C JUMPI PUSH1 0x0 DUP5 ISZERO PUSH2 0x256A JUMPI DUP3 DUP8 ADD MLOAD SWAP1 POP JUMPDEST PUSH2 0x2574 DUP6 DUP3 PUSH2 0x24F6 JUMP JUMPDEST DUP7 SSTORE POP PUSH2 0x25DC JUMP JUMPDEST PUSH1 0x1F NOT DUP5 AND PUSH2 0x258A DUP7 PUSH2 0x2366 JUMP JUMPDEST PUSH1 0x0 JUMPDEST DUP3 DUP2 LT ISZERO PUSH2 0x25B2 JUMPI DUP5 DUP10 ADD MLOAD DUP3 SSTORE PUSH1 0x1 DUP3 ADD SWAP2 POP PUSH1 0x20 DUP6 ADD SWAP5 POP PUSH1 0x20 DUP2 ADD SWAP1 POP PUSH2 0x258D JUMP JUMPDEST DUP7 DUP4 LT ISZERO PUSH2 0x25CF JUMPI DUP5 DUP10 ADD MLOAD PUSH2 0x25CB PUSH1 0x1F DUP10 AND DUP3 PUSH2 0x24D8 JUMP JUMPDEST DUP4 SSTORE POP JUMPDEST PUSH1 0x1 PUSH1 0x2 DUP9 MUL ADD DUP9 SSTORE POP POP POP JUMPDEST POP POP POP POP POP POP JUMP JUMPDEST PUSH1 0x0 PUSH2 0x25EF DUP3 PUSH2 0x19A3 JUMP JUMPDEST PUSH2 0x25F9 DUP2 DUP6 PUSH2 0x20ED JUMP JUMPDEST SWAP4 POP PUSH2 0x2609 DUP2 DUP6 PUSH1 0x20 DUP7 ADD PUSH2 0x19BF JUMP JUMPDEST PUSH2 0x2612 DUP2 PUSH2 0x19E9 JUMP JUMPDEST DUP5 ADD SWAP2 POP POP SWAP3 SWAP2 POP POP JUMP JUMPDEST PUSH1 0x0 PUSH1 0x40 DUP3 ADD SWAP1 POP DUP2 DUP2 SUB PUSH1 0x0 DUP4 ADD MSTORE PUSH2 0x2637 DUP2 DUP6 PUSH2 0x25E4 JUMP JUMPDEST SWAP1 POP DUP2 DUP2 SUB PUSH1 0x20 DUP4 ADD MSTORE PUSH2 0x264B DUP2 DUP5 PUSH2 0x25E4 JUMP JUMPDEST SWAP1 POP SWAP4 SWAP3 POP POP POP JUMP JUMPDEST PUSH1 0x0 PUSH2 0x265F DUP3 PUSH2 0x225A JUMP JUMPDEST SWAP2 POP PUSH2 0x266A DUP4 PUSH2 0x225A JUMP JUMPDEST SWAP3 POP DUP3 DUP3 SUB SWAP1 POP DUP2 DUP2 GT ISZERO PUSH2 0x2682 JUMPI PUSH2 0x2681 PUSH2 0x222B JUMP JUMPDEST JUMPDEST SWAP3 SWAP2 POP POP JUMP JUMPDEST PUSH1 0x0 DUP2 SLOAD SWAP1 POP PUSH2 0x2697 DUP2 PUSH2 0x2069 JUMP JUMPDEST SWAP1 POP SWAP2 SWAP1 POP JUMP JUMPDEST PUSH1 0x0 DUP2 SWAP1 POP DUP2 PUSH1 0x0 MSTORE PUSH1 0x20 PUSH1 0x0 KECCAK256 SWAP1 POP SWAP2 SWAP1 POP JUMP JUMPDEST DUP2 DUP2 SUB PUSH2 0x26C1 JUMPI POP POP PUSH2 0x2799 JUMP JUMPDEST PUSH2 0x26CA DUP3 PUSH2 0x2688 JUMP JUMPDEST PUSH8 0xFFFFFFFFFFFFFFFF DUP2 GT ISZERO PUSH2 0x26E3 JUMPI PUSH2 0x26E2 PUSH2 0x1AF5 JUMP JUMPDEST JUMPDEST PUSH2 0x26ED DUP3 SLOAD PUSH2 0x2069 JUMP JUMPDEST PUSH2 0x26F8 DUP3 DUP3 DUP6 PUSH2 0x2485 JUMP JUMPDEST PUSH1 0x0 PUSH1 0x1F DUP4 GT PUSH1 0x1 DUP2 EQ PUSH2 0x2727 JUMPI PUSH1 0x0 DUP5 ISZERO PUSH2 0x2715 JUMPI DUP3 DUP8 ADD SLOAD SWAP1 POP JUMPDEST PUSH2 0x271F DUP6 DUP3 PUSH2 0x24F6 JUMP JUMPDEST DUP7 SSTORE POP PUSH2 0x2792 JUMP JUMPDEST PUSH1 0x1F NOT DUP5 AND PUSH2 0x2735 DUP8 PUSH2 0x269E JUMP JUMPDEST SWAP7 POP PUSH2 0x2740 DUP7 PUSH2 0x2366 JUMP JUMPDEST PUSH1 0x0 JUMPDEST DUP3 DUP2 LT ISZERO PUSH2 0x2768 JUMPI DUP5 DUP10 ADD SLOAD DUP3 SSTORE PUSH1 0x1 DUP3 ADD SWAP2 POP PUSH1 0x1 DUP6 ADD SWAP5 POP PUSH1 0x20 DUP2 ADD SWAP1 POP PUSH2 0x2743 JUMP JUMPDEST DUP7 DUP4 LT ISZERO PUSH2 0x2785 JUMPI DUP5 DUP10 ADD SLOAD PUSH2 0x2781 PUSH1 0x1F DUP10 AND DUP3 PUSH2 0x24D8 JUMP JUMPDEST DUP4 SSTORE POP JUMPDEST PUSH1 0x1 PUSH1 0x2 DUP9 MUL ADD DUP9 SSTORE POP POP POP JUMPDEST POP POP POP POP POP POP JUMPDEST JUMP JUMPDEST PUSH32 0x4E487B7100000000000000000000000000000000000000000000000000000000 PUSH1 0x0 MSTORE PUSH1 0x31 PUSH1 0x4 MSTORE PUSH1 0x24 PUSH1 0x0 REVERT JUMPDEST PUSH1 0x0 PUSH1 0x20 DUP3 ADD SWAP1 POP DUP2 DUP2 SUB PUSH1 0x0 DUP4 ADD MSTORE PUSH2 0x27E4 DUP2 DUP5 PUSH2 0x25E4 JUMP JUMPDEST SWAP1 POP SWAP3 SWAP2 POP POP JUMP JUMPDEST PUSH32 0x46696C6520646F65736E27742065786973742E00000000000000000000000000 PUSH1 0x0 DUP3 ADD MSTORE POP JUMP JUMPDEST PUSH1 0x0 PUSH2 0x2822 PUSH1 0x13 DUP4 PUSH2 0x20ED JUMP JUMPDEST SWAP2 POP PUSH2 0x282D DUP3 PUSH2 0x27EC JUMP JUMPDEST PUSH1 0x20 DUP3 ADD SWAP1 POP SWAP2 SWAP1 POP JUMP JUMPDEST PUSH1 0x0 PUSH1 0x20 DUP3 ADD SWAP1 POP DUP2 DUP2 SUB PUSH1 0x0 DUP4 ADD MSTORE PUSH2 0x2851 DUP2 PUSH2 0x2815 JUMP JUMPDEST SWAP1 POP SWAP2 SWAP1 POP JUMP JUMPDEST PUSH32 0x5573657220646F6573206E6F7420686176652061636365737300000000000000 PUSH1 0x0 DUP3 ADD MSTORE POP JUMP JUMPDEST PUSH1 0x0 PUSH2 0x288E PUSH1 0x19 DUP4 PUSH2 0x20ED JUMP JUMPDEST SWAP2 POP PUSH2 0x2899 DUP3 PUSH2 0x2858 JUMP JUMPDEST PUSH1 0x20 DUP3 ADD SWAP1 POP SWAP2 SWAP1 POP JUMP JUMPDEST PUSH1 0x0 PUSH1 0x20 DUP3 ADD SWAP1 POP DUP2 DUP2 SUB PUSH1 0x0 DUP4 ADD MSTORE PUSH2 0x28BD DUP2 PUSH2 0x2881 JUMP JUMPDEST SWAP1 POP SWAP2 SWAP1 POP JUMP JUMPDEST PUSH32 0x4F776E65722063616E6E6F74206265207265766F6B6564000000000000000000 PUSH1 0x0 DUP3 ADD MSTORE POP JUMP JUMPDEST PUSH1 0x0 PUSH2 0x28FA PUSH1 0x17 DUP4 PUSH2 0x20ED JUMP JUMPDEST SWAP2 POP PUSH2 0x2905 DUP3 PUSH2 0x28C4 JUMP JUMPDEST PUSH1 0x20 DUP3 ADD SWAP1 POP SWAP2 SWAP1 POP JUMP JUMPDEST PUSH1 0x0 PUSH1 0x20 DUP3 ADD SWAP1 POP DUP2 DUP2 SUB PUSH1 0x0 DUP4 ADD MSTORE PUSH2 0x2929 DUP2 PUSH2 0x28ED JUMP JUMPDEST SWAP1 POP SWAP2 SWAP1 POP JUMP JUMPDEST PUSH32 0x5570646174653A204172726179206C656E677468206D69736D61746368000000 PUSH1 0x0 DUP3 ADD MSTORE POP JUMP JUMPDEST PUSH1 0x0 PUSH2 0x2966 PUSH1 0x1D DUP4 PUSH2 0x20ED JUMP JUMPDEST SWAP2 POP PUSH2 0x2971 DUP3 PUSH2 0x2930 JUMP JUMPDEST PUSH1 0x20 DUP3 ADD SWAP1 POP SWAP2 SWAP1 POP JUMP JUMPDEST PUSH1 0x0 PUSH1 0x20 DUP3 ADD SWAP1 POP DUP2 DUP2 SUB PUSH1 0x0 DUP4 ADD MSTORE PUSH2 0x2995 DUP2 PUSH2 0x2959 JUMP JUMPDEST SWAP1 POP SWAP2 SWAP1 POP JUMP JUMPDEST PUSH32 0x46696C6520616C72656164792065786973747300000000000000000000000000 PUSH1 0x0 DUP3 ADD MSTORE POP JUMP JUMPDEST PUSH1 0x0 PUSH2 0x29D2 PUSH1 0x13 DUP4 PUSH2 0x20ED JUMP JUMPDEST SWAP2 POP PUSH2 0x29DD DUP3 PUSH2 0x299C JUMP JUMPDEST PUSH1 0x20 DUP3 ADD SWAP1 POP SWAP2 SWAP1 POP JUMP JUMPDEST PUSH1 0x0 PUSH1 0x20 DUP3 ADD SWAP1 POP DUP2 DUP2 SUB PUSH1 0x0 DUP4 ADD MSTORE PUSH2 0x2A01 DUP2 PUSH2 0x29C5 JUMP JUMPDEST SWAP1 POP SWAP2 SWAP1 POP JUMP INVALID LOG2 PUSH5 0x6970667358 0x22 SLT KECCAK256 0xAA STATICCALL COINBASE 0x4F EXP PUSH20 0x2D1941202DA91429307E980D7BFC1B4DABCE9540 CODESIZE SIGNEXTEND 0xE8 SWAP9 SHL 0xB0 PUSH5 0x736F6C6343 STOP ADDMOD GT STOP CALLER "},"methodIdentifiers":{"addFile(string)":"eb9b9b64","batchFileOperations(string[],string[],string[],string[])":"e9ef4913","deleteFile(string)":"a9910054","fileOwner(string)":"cbd4585f","getAccessList(string)":"d655c0d3","getUserFiles(address)":"1fc37922","grantAccess(string,address)":"f37c215e","hasAccess(string)":"bf5c6ca5","revokeAccess(string,address)":"dfe0b5fe","updateFile(string,string)":"464ed51c"}}}}}